{
  "address": "0x439Ea10dF3A7B8091aA66204DaDF47af80a57547",
  "abi": [
    {
      "inputs": [
        {
          "internalType": "address",
          "name": "_vrfCoordinator",
          "type": "address"
        },
        {
          "internalType": "uint256",
          "name": "_subscriptionId",
          "type": "uint256"
        },
        {
          "internalType": "bytes32",
          "name": "_gasLane",
          "type": "bytes32"
        },
        {
          "internalType": "uint32",
          "name": "_callbackGasLimit",
          "type": "uint32"
        },
        {
          "internalType": "address",
          "name": "_usdcAddress",
          "type": "address"
        }
      ],
      "stateMutability": "nonpayable",
      "type": "constructor"
    },
    {
      "inputs": [
        {
          "internalType": "address",
          "name": "have",
          "type": "address"
        },
        {
          "internalType": "address",
          "name": "want",
          "type": "address"
        }
      ],
      "name": "OnlyCoordinatorCanFulfill",
      "type": "error"
    },
    {
      "inputs": [
        {
          "internalType": "address",
          "name": "have",
          "type": "address"
        },
        {
          "internalType": "address",
          "name": "owner",
          "type": "address"
        },
        {
          "internalType": "address",
          "name": "coordinator",
          "type": "address"
        }
      ],
      "name": "OnlyOwnerOrCoordinator",
      "type": "error"
    },
    {
      "inputs": [],
      "name": "ZeroAddress",
      "type": "error"
    },
    {
      "anonymous": false,
      "inputs": [
        {
          "indexed": false,
          "internalType": "address",
          "name": "vrfCoordinator",
          "type": "address"
        }
      ],
      "name": "CoordinatorSet",
      "type": "event"
    },
    {
      "anonymous": false,
      "inputs": [
        {
          "indexed": true,
          "internalType": "address",
          "name": "from",
          "type": "address"
        },
        {
          "indexed": true,
          "internalType": "address",
          "name": "to",
          "type": "address"
        }
      ],
      "name": "OwnershipTransferRequested",
      "type": "event"
    },
    {
      "anonymous": false,
      "inputs": [
        {
          "indexed": true,
          "internalType": "address",
          "name": "from",
          "type": "address"
        },
        {
          "indexed": true,
          "internalType": "address",
          "name": "to",
          "type": "address"
        }
      ],
      "name": "OwnershipTransferred",
      "type": "event"
    },
    {
      "anonymous": false,
      "inputs": [
        {
          "indexed": true,
          "internalType": "uint256",
          "name": "tandaId",
          "type": "uint256"
        }
      ],
      "name": "PayoutOrderAssigned",
      "type": "event"
    },
    {
      "anonymous": false,
      "inputs": [
        {
          "indexed": true,
          "internalType": "uint256",
          "name": "tandaId",
          "type": "uint256"
        },
        {
          "indexed": true,
          "internalType": "uint256",
          "name": "requestId",
          "type": "uint256"
        }
      ],
      "name": "RandomnessRequested",
      "type": "event"
    },
    {
      "anonymous": false,
      "inputs": [
        {
          "indexed": true,
          "internalType": "uint256",
          "name": "tandaId",
          "type": "uint256"
        },
        {
          "indexed": true,
          "internalType": "address",
          "name": "tandaAddress",
          "type": "address"
        },
        {
          "indexed": false,
          "internalType": "uint256",
          "name": "contributionAmount",
          "type": "uint256"
        },
        {
          "indexed": false,
          "internalType": "uint256",
          "name": "payoutInterval",
          "type": "uint256"
        },
        {
          "indexed": false,
          "internalType": "uint16",
          "name": "participantCount",
          "type": "uint16"
        },
        {
          "indexed": false,
          "internalType": "uint256",
          "name": "gracePeriod",
          "type": "uint256"
        },
        {
          "indexed": false,
          "internalType": "address",
          "name": "creator",
          "type": "address"
        }
      ],
      "name": "TandaCreated",
      "type": "event"
    },
    {
      "anonymous": false,
      "inputs": [
        {
          "indexed": false,
          "internalType": "uint256",
          "name": "newSubscriptionId",
          "type": "uint256"
        },
        {
          "indexed": false,
          "internalType": "bytes32",
          "name": "newGasLane",
          "type": "bytes32"
        },
        {
          "indexed": false,
          "internalType": "uint32",
          "name": "newCallbackGasLimit",
          "type": "uint32"
        },
        {
          "indexed": false,
          "internalType": "uint16",
          "name": "newRequestConfirmations",
          "type": "uint16"
        },
        {
          "indexed": false,
          "internalType": "uint32",
          "name": "newNumWords",
          "type": "uint32"
        },
        {
          "indexed": false,
          "internalType": "bool",
          "name": "newNativePayment",
          "type": "bool"
        }
      ],
      "name": "VRFConfigUpdated",
      "type": "event"
    },
    {
      "inputs": [],
      "name": "acceptOwnership",
      "outputs": [],
      "stateMutability": "nonpayable",
      "type": "function"
    },
    {
      "inputs": [
        {
          "internalType": "uint256",
          "name": "",
          "type": "uint256"
        }
      ],
      "name": "activeTandas",
      "outputs": [
        {
          "internalType": "bool",
          "name": "",
          "type": "bool"
        }
      ],
      "stateMutability": "view",
      "type": "function"
    },
    {
      "inputs": [
        {
          "internalType": "uint256",
          "name": "_contributionAmount",
          "type": "uint256"
        },
        {
          "internalType": "uint256",
          "name": "_payoutInterval",
          "type": "uint256"
        },
        {
          "internalType": "uint16",
          "name": "_participantCount",
          "type": "uint16"
        },
        {
          "internalType": "uint256",
          "name": "_gracePeriod",
          "type": "uint256"
        }
      ],
      "name": "createTanda",
      "outputs": [
        {
          "internalType": "uint256",
          "name": "",
          "type": "uint256"
        }
      ],
      "stateMutability": "nonpayable",
      "type": "function"
    },
    {
      "inputs": [],
      "name": "getActiveTandaIds",
      "outputs": [
        {
          "internalType": "uint256[]",
          "name": "",
          "type": "uint256[]"
        }
      ],
      "stateMutability": "view",
      "type": "function"
    },
    {
      "inputs": [
        {
          "internalType": "uint256",
          "name": "tandaId",
          "type": "uint256"
        }
      ],
      "name": "getTandaAddress",
      "outputs": [
        {
          "internalType": "address",
          "name": "",
          "type": "address"
        }
      ],
      "stateMutability": "view",
      "type": "function"
    },
    {
      "inputs": [
        {
          "internalType": "uint256",
          "name": "tandaId",
          "type": "uint256"
        }
      ],
      "name": "getTandaParameters",
      "outputs": [
        {
          "internalType": "uint256",
          "name": "contributionAmount",
          "type": "uint256"
        },
        {
          "internalType": "uint256",
          "name": "payoutInterval",
          "type": "uint256"
        },
        {
          "internalType": "uint16",
          "name": "participantCount",
          "type": "uint16"
        },
        {
          "internalType": "uint256",
          "name": "gracePeriod",
          "type": "uint256"
        }
      ],
      "stateMutability": "view",
      "type": "function"
    },
    {
      "inputs": [],
      "name": "getUsdcAddress",
      "outputs": [
        {
          "internalType": "address",
          "name": "",
          "type": "address"
        }
      ],
      "stateMutability": "view",
      "type": "function"
    },
    {
      "inputs": [],
      "name": "getVRFConfig",
      "outputs": [
        {
          "internalType": "uint256",
          "name": "",
          "type": "uint256"
        },
        {
          "internalType": "bytes32",
          "name": "",
          "type": "bytes32"
        },
        {
          "internalType": "uint32",
          "name": "",
          "type": "uint32"
        },
        {
          "internalType": "uint16",
          "name": "",
          "type": "uint16"
        },
        {
          "internalType": "uint32",
          "name": "",
          "type": "uint32"
        },
        {
          "internalType": "bool",
          "name": "",
          "type": "bool"
        }
      ],
      "stateMutability": "view",
      "type": "function"
    },
    {
      "inputs": [
        {
          "internalType": "uint256",
          "name": "tandaId",
          "type": "uint256"
        }
      ],
      "name": "isTandaActive",
      "outputs": [
        {
          "internalType": "bool",
          "name": "",
          "type": "bool"
        }
      ],
      "stateMutability": "view",
      "type": "function"
    },
    {
      "inputs": [],
      "name": "nextTandaId",
      "outputs": [
        {
          "internalType": "uint256",
          "name": "",
          "type": "uint256"
        }
      ],
      "stateMutability": "view",
      "type": "function"
    },
    {
      "inputs": [],
      "name": "owner",
      "outputs": [
        {
          "internalType": "address",
          "name": "",
          "type": "address"
        }
      ],
      "stateMutability": "view",
      "type": "function"
    },
    {
      "inputs": [
        {
          "internalType": "uint256",
          "name": "requestId",
          "type": "uint256"
        },
        {
          "internalType": "uint256[]",
          "name": "randomWords",
          "type": "uint256[]"
        }
      ],
      "name": "rawFulfillRandomWords",
      "outputs": [],
      "stateMutability": "nonpayable",
      "type": "function"
    },
    {
      "inputs": [
        {
          "internalType": "uint256",
          "name": "tandaId",
          "type": "uint256"
        }
      ],
      "name": "requestRandomnessForTanda",
      "outputs": [],
      "stateMutability": "nonpayable",
      "type": "function"
    },
    {
      "inputs": [],
      "name": "requestRandomnessForTandaTest",
      "outputs": [
        {
          "internalType": "uint256",
          "name": "",
          "type": "uint256"
        }
      ],
      "stateMutability": "nonpayable",
      "type": "function"
    },
    {
      "inputs": [],
      "name": "s_vrfCoordinator",
      "outputs": [
        {
          "internalType": "contract IVRFCoordinatorV2Plus",
          "name": "",
          "type": "address"
        }
      ],
      "stateMutability": "view",
      "type": "function"
    },
    {
      "inputs": [
        {
          "internalType": "address",
          "name": "_vrfCoordinator",
          "type": "address"
        }
      ],
      "name": "setCoordinator",
      "outputs": [],
      "stateMutability": "nonpayable",
      "type": "function"
    },
    {
      "inputs": [
        {
          "internalType": "uint256",
          "name": "",
          "type": "uint256"
        }
      ],
      "name": "tandaIdToAddress",
      "outputs": [
        {
          "internalType": "address",
          "name": "",
          "type": "address"
        }
      ],
      "stateMutability": "view",
      "type": "function"
    },
    {
      "inputs": [
        {
          "internalType": "address",
          "name": "to",
          "type": "address"
        }
      ],
      "name": "transferOwnership",
      "outputs": [],
      "stateMutability": "nonpayable",
      "type": "function"
    },
    {
      "inputs": [
        {
          "internalType": "uint256",
          "name": "_subscriptionId",
          "type": "uint256"
        },
        {
          "internalType": "bytes32",
          "name": "_gasLane",
          "type": "bytes32"
        },
        {
          "internalType": "uint32",
          "name": "_callbackGasLimit",
          "type": "uint32"
        },
        {
          "internalType": "uint16",
          "name": "_requestConfirmations",
          "type": "uint16"
        },
        {
          "internalType": "uint32",
          "name": "_numWords",
          "type": "uint32"
        },
        {
          "internalType": "bool",
          "name": "_nativePayment",
          "type": "bool"
        }
      ],
      "name": "updateVRFConfig",
      "outputs": [],
      "stateMutability": "nonpayable",
      "type": "function"
    },
    {
      "inputs": [],
      "name": "usdcAddress",
      "outputs": [
        {
          "internalType": "address",
          "name": "",
          "type": "address"
        }
      ],
      "stateMutability": "view",
      "type": "function"
    },
    {
      "inputs": [
        {
          "internalType": "uint256",
          "name": "",
          "type": "uint256"
        }
      ],
      "name": "vrfRequestIdToTandaId",
      "outputs": [
        {
          "internalType": "uint256",
          "name": "",
          "type": "uint256"
        }
      ],
      "stateMutability": "view",
      "type": "function"
    }
  ],
  "transactionHash": "0x65e89c6daa5e125144e15d345c45533d20dac69fb07cc5e9a3d853b466e7c721",
  "args": [
    "0x5C210eF41CD1a72de73bF76eC39637bB0d3d7BEE",
    "17652650031881938556899546254523775603114927968482728430038901064991564696628",
    "0x9e1344a1247c8a1785d0a4681a27152bffdb43666ae5bf7d14d24a5efd44bf71",
    "100000",
    "0x448951fF62790226fB2adC5f34C5Fe9AF2Eecdf9"
  ],
  "numDeployments": 11,
  "solcInputHash": "01a6c7dfa077a070d6a3d29fd2778e80",
  "bytecode": "0x60a06040526005805466ffffffffffffff60201b19166a01000000010003000000001790553480156200003157600080fd5b506040516200435d3803806200435d8339810160408190526200005491620002ce565b843380600081620000ac5760405162461bcd60e51b815260206004820152601860248201527f43616e6e6f7420736574206f776e657220746f207a65726f000000000000000060448201526064015b60405180910390fd5b600080546001600160a01b0319166001600160a01b0384811691909117909155811615620000df57620000df8162000206565b5050506001600160a01b0381166200010a5760405163d92e233d60e01b815260040160405180910390fd5b600280546001600160a01b0319166001600160a01b039283161790558516620001765760405162461bcd60e51b815260206004820152601760248201527f496e76616c69642056524620636f6f7264696e61746f720000000000000000006044820152606401620000a3565b6001600160a01b038116620001ce5760405162461bcd60e51b815260206004820152601460248201527f496e76616c6964205553444320616464726573730000000000000000000000006044820152606401620000a3565b6003939093556004919091556005805463ffffffff191663ffffffff9092169190911790556001600160a01b03166080525062000336565b336001600160a01b03821603620002605760405162461bcd60e51b815260206004820152601760248201527f43616e6e6f74207472616e7366657220746f2073656c660000000000000000006044820152606401620000a3565b600180546001600160a01b0319166001600160a01b0383811691821790925560008054604051929316917fed8889f560326eb138920d842192f0eb3dd22b4f139c87a2c57538e05bae12789190a350565b80516001600160a01b0381168114620002c957600080fd5b919050565b600080600080600060a08688031215620002e757600080fd5b620002f286620002b1565b94506020860151935060408601519250606086015163ffffffff811681146200031a57600080fd5b91506200032a60808701620002b1565b90509295509295909350565b608051614004620003596000396000818161015c01526103e201526140046000f3fe60806040523480156200001157600080fd5b5060043610620001515760003560e01c80638ce8fb5711620000c75780639bb0c0b911620000865780639bb0c0b914620003875780639eccacf614620003a0578063c1a2834114620003b4578063dbe0b5b214620003e0578063e7e66ae21462000407578063f2fde38b146200041e57600080fd5b80638ce8fb5714620002cd5780638da5cb5b14620002d75780638ea9811714620002e957806397b509be14620003005780639a5ea6a0146200032657600080fd5b80636a1ea73411620001145780636a1ea734146200025f5780636d4dd343146200028b5780636fa64ffd14620002a25780637366026414620002b957806379ba509714620002c357600080fd5b806302d4545714620001565780631fe543e3146200019b578063235f1e1414620001b457806336d1ee1214620001e657806338dd8141146200021d575b600080fd5b6200017e7f000000000000000000000000000000000000000000000000000000000000000081565b6040516001600160a01b0390911681526020015b60405180910390f35b620001b2620001ac36600462001326565b62000435565b005b620001d7620001c5366004620013aa565b60086020526000908152604090205481565b60405190815260200162000192565b6200020c620001f7366004620013aa565b60009081526009602052604090205460ff1690565b604051901515815260200162000192565b620002346200022e366004620013aa565b6200048d565b604051620001929493929190938452602084019290925261ffff166040830152606082015260800190565b6200017e62000270366004620013aa565b6000908152600760205260409020546001600160a01b031690565b620001b26200029c366004620013ef565b62000697565b620001d7620002b336600462001468565b62000765565b620001d762000ad8565b620001b262000bce565b620001d760065481565b6000546001600160a01b03166200017e565b620001b2620002fa366004620014aa565b62000c7a565b6200020c62000311366004620013aa565b60096020526000908152604090205460ff1681565b60035460045460055460408051938452602084019290925263ffffffff80821692840192909252640100000000810461ffff166060840152600160301b81049091166080830152600160501b900460ff16151560a082015260c00162000192565b6200039162000d71565b604051620001929190620014dc565b6002546200017e906001600160a01b031681565b6200017e620003c5366004620013aa565b6007602052600090815260409020546001600160a01b031681565b7f00000000000000000000000000000000000000000000000000000000000000006200017e565b620001b262000418366004620013aa565b62000e81565b620001b26200042f366004620014aa565b62001063565b6002546001600160a01b031633146200047b5760025460405163073e64fd60e21b81523360048201526001600160a01b0390911660248201526044015b60405180910390fd5b620004888383836200107b565b505050565b6000818152600760205260408120548190819081906001600160a01b031680620004ed5760405162461bcd60e51b815260206004820152601060248201526f125b9d985b1a590815185b991848125160821b604482015260640162000472565b6000819050806001600160a01b0316635fa0b65f6040518163ffffffff1660e01b8152600401602060405180830381865afa15801562000531573d6000803e3d6000fd5b505050506040513d601f19601f8201168201806040525081019062000557919062001522565b816001600160a01b03166309e785e16040518163ffffffff1660e01b8152600401602060405180830381865afa15801562000596573d6000803e3d6000fd5b505050506040513d601f19601f82011682018060405250810190620005bc919062001522565b826001600160a01b031663362f04c06040518163ffffffff1660e01b8152600401602060405180830381865afa158015620005fb573d6000803e3d6000fd5b505050506040513d601f19601f820116820180604052508101906200062191906200153c565b836001600160a01b031663a06db7dc6040518163ffffffff1660e01b8152600401602060405180830381865afa15801562000660573d6000803e3d6000fd5b505050506040513d601f19601f8201168201806040525081019062000686919062001522565b955095509550955050509193509193565b620006a1620011a4565b600386905560048590556005805463ffffffff86811665ffffffffffff19909216821764010000000061ffff8816908102919091176affffffffff0000000000001916600160301b92871692830260ff60501b191617600160501b86151590810291909117909455604080518b8152602081018b9052908101939093526060830152608082015260a08101919091527f0cdc489fece0d7f3035beb01347b6783f88e92de0888eac9f152d6974f82abb99060c00160405180910390a1505050505050565b600062989680851015620007bc5760405162461bcd60e51b815260206004820152601c60248201527f4d696e696d756d20636f6e747269627574696f6e203130205553444300000000604482015260640162000472565b620151808410156200080a5760405162461bcd60e51b81526020600482015260166024820152754d696e696d756d20696e74657276616c20312064617960501b604482015260640162000472565b62278d008411156200085f5760405162461bcd60e51b815260206004820152601860248201527f4d6178696d756d20696e74657276616c20333020646179730000000000000000604482015260640162000472565b60028361ffff161015620008af5760405162461bcd60e51b81526020600482015260166024820152754d696e696d756d2032207061727469636970616e747360501b604482015260640162000472565b60328361ffff161115620009065760405162461bcd60e51b815260206004820152601760248201527f4d6178696d756d203530207061727469636970616e7473000000000000000000604482015260640162000472565b620151808210156200095b5760405162461bcd60e51b815260206004820152601a60248201527f4d696e696d756d20677261636520706572696f64203120646179000000000000604482015260640162000472565b62093a80821115620009b05760405162461bcd60e51b815260206004820152601b60248201527f4d6178696d756d20677261636520706572696f64203720646179730000000000604482015260640162000472565b6006805460009182620009c3836200155c565b919050559050600081878787873033604051620009e09062001318565b9687526020870195909552604086019390935261ffff909116606085015260808401526001600160a01b0390811660a08401521660c082015260e001604051809103906000f08015801562000a39573d6000803e3d6000fd5b50600083815260076020908152604080832080546001600160a01b0319166001600160a01b0386169081179091556009835292819020805460ff1916600117905580518b81529182018a905261ffff891690820152606081018790523360808201529192509083907f2940fca0fb20f9c88f11423e7bc9b5ad283a937caed7568cb40ab1b736a89e459060a00160405180910390a35095945050505050565b6002546040805160c0810182526004548152600354602080830191909152600554640100000000810461ffff168385015263ffffffff8082166060850152600160301b82041660808401528351918201909352600160501b90920460ff161515825260009283926001600160a01b0390911691639b1c385e9160a082019062000b6190620011fb565b8152506040518263ffffffff1660e01b815260040162000b82919062001584565b6020604051808303816000875af115801562000ba2573d6000803e3d6000fd5b505050506040513d601f19601f8201168201806040525081019062000bc8919062001522565b92915050565b6001546001600160a01b0316331462000c235760405162461bcd60e51b815260206004820152601660248201527526bab9ba10313290383937b837b9b2b21037bbb732b960511b604482015260640162000472565b60008054336001600160a01b0319808316821784556001805490911690556040516001600160a01b0390921692909183917f8be0079c531659141344cd1fd0a4f28419497f9722a3daafe3b4186f6b6457e091a350565b6000546001600160a01b0316331480159062000ca157506002546001600160a01b03163314155b1562000cf5573362000cbb6000546001600160a01b031690565b60025460405163061db9c160e01b81526001600160a01b039384166004820152918316602483015291909116604482015260640162000472565b6001600160a01b03811662000d1d5760405163d92e233d60e01b815260040160405180910390fd5b600280546001600160a01b0319166001600160a01b0383169081179091556040519081527fd1a6a14209a385a964d036e404cb5cfb71f4000cdb03c9366292430787261be69060200160405180910390a150565b60606000805b60065481101562000dbf5760008181526009602052604090205460ff161562000daa578162000da6816200155c565b9250505b8062000db6816200155c565b91505062000d77565b5060008167ffffffffffffffff81111562000dde5762000dde62001622565b60405190808252806020026020018201604052801562000e08578160200160208202803683370190505b5090506000805b60065481101562000e785760008181526009602052604090205460ff161562000e63578083838151811062000e485762000e4862001638565b60209081029190910101528162000e5f816200155c565b9250505b8062000e6f816200155c565b91505062000e0f565b50909392505050565b6000818152600760205260409020546001600160a01b0316331462000edf5760405162461bcd60e51b815260206004820152601360248201527243616c6c6572206973206e6f742054616e646160681b604482015260640162000472565b60008181526009602052604090205460ff1662000f355760405162461bcd60e51b815260206004820152601360248201527254616e6461206973206e6f742061637469766560681b604482015260640162000472565b6002546040805160c0810182526004548152600354602080830191909152600554640100000000810461ffff168385015263ffffffff8082166060850152600160301b82041660808401528351918201909352600160501b90920460ff16151582526000926001600160a01b031691639b1c385e919060a082019062000fbb90620011fb565b8152506040518263ffffffff1660e01b815260040162000fdc919062001584565b6020604051808303816000875af115801562000ffc573d6000803e3d6000fd5b505050506040513d601f19601f8201168201806040525081019062001022919062001522565b60008181526008602052604080822085905551919250829184917f3d94fecedaa4f90b8bd459797adb95f5bb11426025c5541390d9ccc1ad1b60a191a35050565b6200106d620011a4565b62001078816200126d565b50565b6000838152600860209081526040808320548084526007909252909120546001600160a01b0316620010e35760405162461bcd60e51b815260206004820152601060248201526f125b9d985b1a590815185b991848125160821b604482015260640162000472565b6000818152600760205260408120546001600160a01b031690819063c84979f390869086908162001118576200111862001638565b905060200201356040518263ffffffff1660e01b81526004016200113e91815260200190565b600060405180830381600087803b1580156200115957600080fd5b505af11580156200116e573d6000803e3d6000fd5b50506040518492507f58206d7b6e1a94532dbabfe2fc0e526166ba6025e005b4cb7d2c31248fe4fc9f9150600090a25050505050565b6000546001600160a01b03163314620011f95760405162461bcd60e51b815260206004820152601660248201527527b7363c9031b0b63630b1363290313c9037bbb732b960511b604482015260640162000472565b565b60607f92fd13387c7fe7befbc38d303d6468778fb9731bc4583f17d92989c6fcfdeaaa826040516024016200123591511515815260200190565b60408051601f198184030181529190526020810180516001600160e01b03166001600160e01b03199093169290921790915292915050565b336001600160a01b03821603620012c75760405162461bcd60e51b815260206004820152601760248201527f43616e6e6f74207472616e7366657220746f2073656c66000000000000000000604482015260640162000472565b600180546001600160a01b0319166001600160a01b0383811691821790925560008054604051929316917fed8889f560326eb138920d842192f0eb3dd22b4f139c87a2c57538e05bae12789190a350565b612980806200164f83390190565b6000806000604084860312156200133c57600080fd5b83359250602084013567ffffffffffffffff808211156200135c57600080fd5b818601915086601f8301126200137157600080fd5b8135818111156200138157600080fd5b8760208260051b85010111156200139757600080fd5b6020830194508093505050509250925092565b600060208284031215620013bd57600080fd5b5035919050565b803563ffffffff81168114620013d957600080fd5b919050565b61ffff811681146200107857600080fd5b60008060008060008060c087890312156200140957600080fd5b86359550602087013594506200142260408801620013c4565b935060608701356200143481620013de565b92506200144460808801620013c4565b915060a087013580151581146200145a57600080fd5b809150509295509295509295565b600080600080608085870312156200147f57600080fd5b843593506020850135925060408501356200149a81620013de565b9396929550929360600135925050565b600060208284031215620014bd57600080fd5b81356001600160a01b0381168114620014d557600080fd5b9392505050565b6020808252825182820181905260009190848201906040850190845b818110156200151657835183529284019291840191600101620014f8565b50909695505050505050565b6000602082840312156200153557600080fd5b5051919050565b6000602082840312156200154f57600080fd5b8151620014d581620013de565b6000600182016200157d57634e487b7160e01b600052601160045260246000fd5b5060010190565b6000602080835283518184015280840151604084015261ffff6040850151166060840152606084015163ffffffff80821660808601528060808701511660a0860152505060a084015160c08085015280518060e086015260005b81811015620015fd5782810184015186820161010001528301620015de565b506101009250600083828701015282601f19601f830116860101935050505092915050565b634e487b7160e01b600052604160045260246000fd5b634e487b7160e01b600052603260045260246000fdfe6101806040523480156200001257600080fd5b50604051620029803803806200298083398101604081905262000035916200030f565b6001600055856200008d5760405162461bcd60e51b815260206004820152601f60248201527f436f6e747269627574696f6e20616d6f756e74206d757374206265203e20300060448201526064015b60405180910390fd5b60008511620000df5760405162461bcd60e51b815260206004820152601b60248201527f5061796f757420696e74657276616c206d757374206265203e20300000000000604482015260640162000084565b60028461ffff161015620001365760405162461bcd60e51b815260206004820152601f60248201527f4d696e696d756d2032207061727469636970616e747320726571756972656400604482015260640162000084565b60008311620001885760405162461bcd60e51b815260206004820152601860248201527f477261636520706572696f64206d757374206265203e20300000000000000000604482015260640162000084565b6001600160a01b038216620001e05760405162461bcd60e51b815260206004820152601760248201527f496e76616c6964206d616e616765722061646472657373000000000000000000604482015260640162000084565b6001600160a01b038116620002385760405162461bcd60e51b815260206004820152601760248201527f496e76616c69642063726561746f722061646472657373000000000000000000604482015260640162000084565b608087905260a086905260c085905261ffff84166101005260e08390526001600160a01b03821661012081905260408051636df05ad960e11b8152905163dbe0b5b2916004808201926020929091908290030181865afa158015620002a1573d6000803e3d6000fd5b505050506040513d601f19601f82011682018060405250810190620002c7919062000389565b6001600160a01b03908116610140526001805460ff19169055166101605250620003ae945050505050565b80516001600160a01b03811681146200030a57600080fd5b919050565b600080600080600080600060e0888a0312156200032b57600080fd5b875196506020880151955060408801519450606088015161ffff811681146200035357600080fd5b608089015190945092506200036b60a08901620002f2565b91506200037b60c08901620002f2565b905092959891949750929550565b6000602082840312156200039c57600080fd5b620003a782620002f2565b9392505050565b60805160a05160c05160e051610100516101205161014051610160516124a8620004d86000396000818161021701528181610ac7015281816112f801526114ea0152600081816102d8015281816107b4015281816108a7015281816110f7015261180501526000818161039a01528181611a4d0152611fd3015260008181610360015281816106c50152818161074c0152818161092a01528181610dd401528181610e5a015281816110320152818161173e01528181611a1401528181611b0d01528181611b7c01528181611bfb0152611c61015260006104ae01526000818161026001526105930152600081816104180152818161076e01528181610e7c015281816110c40152818161182901526119a60152600081816104d50152611fad01526124a86000f3fe608060405234801561001057600080fd5b50600436106101da5760003560e01c8063570c69cd11610104578063a06db7dc116100a2578063bab2f55211610071578063bab2f5521461050c578063c19d93fb14610515578063c84979f31461052f578063e6fd48bc1461054257600080fd5b8063a06db7dc146104a9578063a224388e146104d0578063aaa83e5a146104f7578063b688a3631461050457600080fd5b8063729df2f3116100de578063729df2f31461045a578063924e62531461046d578063929066f514610475578063968ed600146104a057600080fd5b8063570c69cd146103fa5780635fa0b65f146104135780637143059f1461043a57600080fd5b80630e15a1961161017c578063362f04c01161014b578063362f04c01461035b578063481c6a75146103955780634c3b1939146103bc5780635114cb52146103e757600080fd5b80630e15a196146102c057806311eac855146102d3578063195ec9ee146102fa57806335c1d3491461030f57600080fd5b806309e785e1116101b857806309e785e11461025b5780630ad08b86146102825780630b529a171461028a5780630ce014741461029d57600080fd5b806301e2db35146101df57806302d05d3f1461021257806305a95f0414610251575b600080fd5b6101ff6101ed366004612125565b60066020526000908152604090205481565b6040519081526020015b60405180910390f35b6102397f000000000000000000000000000000000000000000000000000000000000000081565b6040516001600160a01b039091168152602001610209565b61025961054b565b005b6101ff7f000000000000000000000000000000000000000000000000000000000000000081565b6101ff600f81565b6101ff61029836600461214e565b6109a5565b6102b06102ab366004612125565b6109c6565b6040519015158152602001610209565b6102596102ce366004612125565b610abc565b6102397f000000000000000000000000000000000000000000000000000000000000000081565b610302610cab565b60405161020991906121ab565b61032261031d36600461214e565b610d56565b604080516001600160a01b03909716875294151560208701529385019290925215156060840152608083015260a082015260c001610209565b6103827f000000000000000000000000000000000000000000000000000000000000000081565b60405161ffff9091168152602001610209565b6102397f000000000000000000000000000000000000000000000000000000000000000081565b6103c4610db0565b604080519384526001600160a01b03909216602084015290820152606001610209565b6102596103f536600461214e565b610ea9565b6005546040516102099160009182919082908190612231565b6101ff7f000000000000000000000000000000000000000000000000000000000000000081565b61044d610448366004612125565b6111ac565b6040516102099190612261565b610259610468366004612125565b6112ed565b6102596114df565b6102b0610483366004612125565b6001600160a01b0316600090815260066020526040902054151590565b6101ff60045481565b6101ff7f000000000000000000000000000000000000000000000000000000000000000081565b6101ff7f000000000000000000000000000000000000000000000000000000000000000081565b6007546102b09060ff1681565b6102596116dc565b6101ff60035481565b6001546105229060ff1681565b6040516102099190612275565b61025961053d36600461214e565b611a42565b6101ff60025481565b610553611dba565b6001805460ff16600281111561056b5761056b6121f9565b146105915760405162461bcd60e51b815260040161058890612283565b60405180910390fd5b7f00000000000000000000000000000000000000000000000000000000000000006003546105bf91906122c6565b6002546105cc91906122dd565b42101561061b5760405162461bcd60e51b815260206004820152601b60248201527f43757272656e74206379636c65206e6f7420636f6d706c6574656400000000006044820152606401610588565b610623611de4565b61066f5760405162461bcd60e51b815260206004820152601e60248201527f4e6f7420616c6c207061727469636970616e74732068617665207061696400006044820152606401610588565b60075460ff166106c15760405162461bcd60e51b815260206004820152601960248201527f5061796f7574206f72646572206e6f742061737369676e6564000000000000006044820152606401610588565b60007f000000000000000000000000000000000000000000000000000000000000000061ffff166003546106f591906122f0565b9050600060056008838154811061070e5761070e612312565b90600052602060002001548154811061072957610729612312565b600091825260208220600590910201546001600160a01b0316915061079261ffff7f0000000000000000000000000000000000000000000000000000000000000000167f00000000000000000000000000000000000000000000000000000000000000006122c6565b6040516370a0823160e01b815230600482015290915081906001600160a01b037f000000000000000000000000000000000000000000000000000000000000000016906370a0823190602401602060405180830381865afa1580156107fb573d6000803e3d6000fd5b505050506040513d601f19601f8201168201806040525081019061081f9190612328565b101561086d5760405162461bcd60e51b815260206004820152601d60248201527f496e73756666696369656e7420636f6e74726163742062616c616e63650000006044820152606401610588565b6003805490600061087d83612341565b91905055508060046000828254610894919061235a565b909155506108ce90506001600160a01b037f0000000000000000000000000000000000000000000000000000000000000000168383611eaa565b816001600160a01b03167f1d2b6cb5f88d674645ff36bd6e4ea583bc3bea7dbb817b193201b90dc9eb4774826001600354610909919061235a565b604080519283526020830191909152429082015260600160405180910390a27f000000000000000000000000000000000000000000000000000000000000000061ffff1660035410610996576001805460ff191660021790556040514281527f7bd139738245a137c3a1097cc5b6e4ab191bc684746c29d16ae43280bda83c539060200160405180910390a15b5050506109a36001600055565b565b600881815481106109b557600080fd5b600091825260209091200154905081565b6001600160a01b0381166000908152600660205260408120546109eb57506000919050565b6001600160a01b038216600090815260066020526040812054600590610a139060019061235a565b81548110610a2357610a23612312565b60009182526020918290206040805160c081018252600590930290910180546001600160a01b038116845260ff600160a01b90910481161515948401949094526001810154918301919091526002810154909216158015606083018190526003840154608084015260049093015460a0830152909250610aa4575080602001515b8015610ab557506003548160400151115b9392505050565b336001600160a01b037f00000000000000000000000000000000000000000000000000000000000000001614610b045760405162461bcd60e51b81526004016105889061236d565b6001805460ff166002811115610b1c57610b1c6121f9565b14610b395760405162461bcd60e51b815260040161058890612283565b6001600160a01b038116600090815260066020526040812054610b5e9060019061235a565b6005549091508110610ba85760405162461bcd60e51b8152602060048201526013602482015272125b9d985b1a59081c185c9d1a58da5c185b9d606a1b6044820152606401610588565b600060058281548110610bbd57610bbd612312565b60009182526020909120600590910201600281015490915060ff16610bf45760405162461bcd60e51b81526004016105889061239c565b8054600160a01b900460ff16158015610c135750600354816001015411155b610c5f5760405162461bcd60e51b815260206004820152601a60248201527f5061727469636970616e74206e6f7420696e2064656661756c740000000000006044820152606401610588565b600354604080519182524260208301526001600160a01b038516917f48f5b31689373177c3a194793297ff1acf95fcc7ea01b17f45109945d754958891015b60405180910390a2505050565b60606005805480602002602001604051908101604052809291908181526020016000905b82821015610d4d5760008481526020908190206040805160c0810182526005860290920180546001600160a01b038116845260ff600160a01b90910481161515848601526001808301549385019390935260028201541615156060840152600381015460808401526004015460a08301529083529092019101610ccf565b50505050905090565b60058181548110610d6657600080fd5b6000918252602090912060059091020180546001820154600283015460038401546004909401546001600160a01b0384169550600160a01b90930460ff9081169492939116919086565b600354600754600090819060ff168015610dcb575060055415155b15610ea45760007f000000000000000000000000000000000000000000000000000000000000000061ffff16600354610e0491906122f0565b9050600560088281548110610e1b57610e1b612312565b906000526020600020015481548110610e3657610e36612312565b60009182526020909120600590910201546001600160a01b03169250610ea061ffff7f0000000000000000000000000000000000000000000000000000000000000000167f00000000000000000000000000000000000000000000000000000000000000006122c6565b9150505b909192565b33600090815260066020526040902054610f055760405162461bcd60e51b815260206004820152601960248201527f43616c6c6572206973206e6f74207061727469636970616e74000000000000006044820152606401610588565b6001805460ff166002811115610f1d57610f1d6121f9565b14610f3a5760405162461bcd60e51b815260040161058890612283565b6001805460ff166002811115610f5257610f526121f9565b14610f6f5760405162461bcd60e51b815260040161058890612283565b60008111610fbf5760405162461bcd60e51b815260206004820152601d60248201527f4d7573742070617920666f72206174206c656173742031206379636c650000006044820152606401610588565b33600090815260066020526040812054610fdb9060019061235a565b9050600060058281548110610ff257610ff2612312565b60009182526020909120600590910201600281015490915060ff166110295760405162461bcd60e51b81526004016105889061239c565b600081600101547f000000000000000000000000000000000000000000000000000000000000000061ffff1661105f919061235a565b61106a9060016122dd565b9050808411156110bc5760405162461bcd60e51b815260206004820152601e60248201527f43616e6e6f7420706179206265796f6e6420746f74616c206379636c657300006044820152606401610588565b60006110e8857f00000000000000000000000000000000000000000000000000000000000000006122c6565b905061111f6001600160a01b037f000000000000000000000000000000000000000000000000000000000000000016333084611f0e565b8483600101600082825461113391906122dd565b9091555050825460ff60a01b1916600160a01b1783556004805482919060009061115e9084906122dd565b909155505060408051868152602081018390524281830152905133917f8e4aa0897527f9d5629d6daf3255e753bfdd9862c1b9803c200a8bd12d5b8625919081900360600190a25050505050565b6040805160c08101825260008082526020808301829052828401829052606083018290526080830182905260a083018290526001600160a01b038516825260069052919091205461123f5760405162461bcd60e51b815260206004820152601a60248201527f41646472657373206973206e6f74207061727469636970616e740000000000006044820152606401610588565b6001600160a01b0382166000908152600660205260409020546005906112679060019061235a565b8154811061127757611277612312565b60009182526020918290206040805160c081018252600590930290910180546001600160a01b038116845260ff600160a01b90910481161515948401949094526001810154918301919091526002810154909216151560608201526003820154608082015260049091015460a082015292915050565b336001600160a01b037f000000000000000000000000000000000000000000000000000000000000000016146113355760405162461bcd60e51b81526004016105889061236d565b6001805460ff16600281111561134d5761134d6121f9565b1461136a5760405162461bcd60e51b815260040161058890612283565b6001600160a01b03811660009081526006602052604081205461138f9060019061235a565b60055490915081106113d95760405162461bcd60e51b8152602060048201526013602482015272125b9d985b1a59081c185c9d1a58da5c185b9d606a1b6044820152606401610588565b6000600582815481106113ee576113ee612312565b60009182526020909120600590910201600281015490915060ff166114255760405162461bcd60e51b81526004016105889061239c565b8054600160a01b900460ff161580156114445750600354816001015411155b6114905760405162461bcd60e51b815260206004820152601a60248201527f5061727469636970616e74206e6f7420696e2064656661756c740000000000006044820152606401610588565b60028101805460ff19169055600354604080519182524260208301526001600160a01b038516917f7e4798a8032598c7051889ed361360d7a9014ad9a23db8378c2984bbc5cc4f0a9101610c9e565b336001600160a01b037f000000000000000000000000000000000000000000000000000000000000000016146115275760405162461bcd60e51b81526004016105889061236d565b600260015460ff166002811115611540576115406121f9565b146115865760405162461bcd60e51b815260206004820152601660248201527515185b9918481a5cc81b9bdd0818dbdb5c1b195d195960521b6044820152606401610588565b6001805460ff199081169091556000600281905560038190556004819055600780549092169091556115ba906008906120a4565b60005b6005548110156116a6576000600582815481106115dc576115dc612312565b906000526020600020906005020160000160146101000a81548160ff02191690831515021790555060006005828154811061161957611619612312565b90600052602060002090600502016001018190555060016005828154811061164357611643612312565b906000526020600020906005020160020160006101000a81548160ff02191690831515021790555060006005828154811061168057611680612312565b60009182526020909120600360059092020101558061169e81612341565b9150506115bd565b506040514281527fd3ebc31f8a361237f62eadb2eebe3af4a3ec578b0ccb724fe48f76c607f3000d9060200160405180910390a1565b600060015460ff1660028111156116f5576116f56121f9565b146117365760405162461bcd60e51b81526020600482015260116024820152702a30b732309034b9903737ba1037b832b760791b6044820152606401610588565b60055461ffff7f0000000000000000000000000000000000000000000000000000000000000000161161179b5760405162461bcd60e51b815260206004820152600d60248201526c15185b9918481a5cc8199d5b1b609a1b6044820152606401610588565b33600090815260066020526040902054156117f85760405162461bcd60e51b815260206004820152601960248201527f416c7265616479206a6f696e656420746869732074616e6461000000000000006044820152606401610588565b61184d6001600160a01b037f00000000000000000000000000000000000000000000000000000000000000001633307f0000000000000000000000000000000000000000000000000000000000000000611f0e565b6040805160c0810182523380825260016020808401828152848601838152606086018481526000608088018181524260a08a019081526005805498890181558084529951978a027f036b6384b5eca791c62761152d0c79bb0604c104a5fb6f4eb0703f3154bb3db08101805497511515600160a01b026001600160a81b03199098166001600160a01b039a909a16999099179690961790975592517f036b6384b5eca791c62761152d0c79bb0604c104a5fb6f4eb0703f3154bb3db185015590517f036b6384b5eca791c62761152d0c79bb0604c104a5fb6f4eb0703f3154bb3db28401805491151560ff1990921691909117905590517f036b6384b5eca791c62761152d0c79bb0604c104a5fb6f4eb0703f3154bb3db383015592517f036b6384b5eca791c62761152d0c79bb0604c104a5fb6f4eb0703f3154bb3db4909101559254918152600690925291812091909155600480547f000000000000000000000000000000000000000000000000000000000000000092906119d29084906122dd565b909155505060405142815233907f8123641a38ad3476ac345fc38496fa9edc26a110698c8c0c9fffc30f546f918c9060200160405180910390a260055461ffff7f00000000000000000000000000000000000000000000000000000000000000001690036109a3576109a3611f4d565b336001600160a01b037f00000000000000000000000000000000000000000000000000000000000000001614611ab25760405162461bcd60e51b815260206004820152601560248201527421b0b63632b91034b9903737ba1036b0b730b3b2b960591b6044820152606401610588565b60075460ff1615611b055760405162461bcd60e51b815260206004820152601d60248201527f5061796f7574206f7264657220616c72656164792061737369676e65640000006044820152606401610588565b60055461ffff7f00000000000000000000000000000000000000000000000000000000000000001614611b7a5760405162461bcd60e51b815260206004820152601b60248201527f4e6f7420616c6c207061727469636970616e7473206a6f696e656400000000006044820152606401610588565b7f000000000000000000000000000000000000000000000000000000000000000061ffff1667ffffffffffffffff811115611bb757611bb76123d3565b604051908082528060200260200182016040528015611be0578160200160208202803683370190505b508051611bf5916008916020909101906120c5565b5060005b7f000000000000000000000000000000000000000000000000000000000000000061ffff16811015611c57578060088281548110611c3957611c39612312565b60009182526020909120015580611c4f81612341565b915050611bf9565b506000611c8560017f00000000000000000000000000000000000000000000000000000000000000006123e9565b61ffff1690505b8015611d6e576000611c9f8260016122dd565b60408051602081018690529081018490526060016040516020818303038152906040528051906020012060001c611cd691906122f0565b905060088181548110611ceb57611ceb612312565b906000526020600020015460088381548110611d0957611d09612312565b906000526020600020015460088481548110611d2757611d27612312565b90600052602060002001600060088581548110611d4657611d46612312565b6000918252602090912001929092559190915550819050611d668161240b565b915050611c8c565b506007805460ff191660011790556040517f971012af51546161130452a244c133ec24b1cde244ef6ac75b42efc886a43ada90611daf906008904290612422565b60405180910390a150565b600260005403611ddd57604051633ee5aeb560e01b815260040160405180910390fd5b6002600055565b6000805b600554811015611ea25760058181548110611e0557611e05612312565b600091825260209091206002600590920201015460ff168015611e83575060035460058281548110611e3957611e39612312565b906000526020600020906005020160010154111580611e83575060058181548110611e6657611e66612312565b6000918252602090912060059091020154600160a01b900460ff16155b15611e9057600091505090565b80611e9a81612341565b915050611de8565b506001905090565b6040516001600160a01b03838116602483015260448201839052611f0991859182169063a9059cbb906064015b604051602081830303815290604052915060e01b6020820180516001600160e01b038381831617835250505050612033565b505050565b6040516001600160a01b038481166024830152838116604483015260648201839052611f479186918216906323b872dd90608401611ed7565b50505050565b6001805460ff19168117815542600281905560038290556040805191825260208201929092527faed8f846008894a9b50aafe48b33af7084702a26f52921bbf1f5aa5dfbb09aa4910160405180910390a16040516373f3357160e11b81527f000000000000000000000000000000000000000000000000000000000000000060048201527f00000000000000000000000000000000000000000000000000000000000000006001600160a01b03169063e7e66ae290602401600060405180830381600087803b15801561201f57600080fd5b505af1158015611f47573d6000803e3d6000fd5b600080602060008451602086016000885af180612056576040513d6000823e3d81fd5b50506000513d9150811561206e57806001141561207b565b6001600160a01b0384163b155b15611f4757604051635274afe760e01b81526001600160a01b0385166004820152602401610588565b50805460008255906000526020600020908101906120c29190612110565b50565b828054828255906000526020600020908101928215612100579160200282015b828111156121005782518255916020019190600101906120e5565b5061210c929150612110565b5090565b5b8082111561210c5760008155600101612111565b60006020828403121561213757600080fd5b81356001600160a01b0381168114610ab557600080fd5b60006020828403121561216057600080fd5b5035919050565b80516001600160a01b03168252602080820151151590830152604080820151908301526060808201511515908301526080808201519083015260a090810151910152565b6020808252825182820181905260009190848201906040850190845b818110156121ed576121da838551612167565b9284019260c092909201916001016121c7565b50909695505050505050565b634e487b7160e01b600052602160045260246000fd5b6003811061222d57634e487b7160e01b600052602160045260246000fd5b9052565b60a0810161223f828861220f565b8560208301528460408301528360608301528260808301529695505050505050565b60c0810161226f8284612167565b92915050565b6020810161226f828461220f565b60208082526013908201527254616e6461206973206e6f742061637469766560681b604082015260600190565b634e487b7160e01b600052601160045260246000fd5b808202811582820484141761226f5761226f6122b0565b8082018082111561226f5761226f6122b0565b60008261230d57634e487b7160e01b600052601260045260246000fd5b500690565b634e487b7160e01b600052603260045260246000fd5b60006020828403121561233a57600080fd5b5051919050565b600060018201612353576123536122b0565b5060010190565b8181038181111561226f5761226f6122b0565b60208082526015908201527421b0b63632b91034b9903737ba1031b932b0ba37b960591b604082015260600190565b60208082526017908201527f5061727469636970616e7420697320696e616374697665000000000000000000604082015260600190565b634e487b7160e01b600052604160045260246000fd5b61ffff828116828216039080821115612404576124046122b0565b5092915050565b60008161241a5761241a6122b0565b506000190190565b6000604082016040835280855480835260608501915086600052602092508260002060005b8281101561246357815484529284019260019182019101612447565b5050509201929092529291505056fea2646970667358221220621b459167324751fbb4201da0b3fda061a16309533e65eb805e38bedc1ed57c64736f6c63430008140033a2646970667358221220f25307853b65a5ff83b9ab33360d77c33dc33bf88ec8043a4e1c34c7d4f9206264736f6c63430008140033",
  "devdoc": {
    "kind": "dev",
    "methods": {
      "createTanda(uint256,uint256,uint16,uint256)": {
        "params": {
          "_contributionAmount": "USDC amount each participant must contribute",
          "_gracePeriod": "Grace period for late payments in seconds",
          "_participantCount": "Number of participants needed",
          "_payoutInterval": "Time between payouts in seconds"
        },
        "returns": {
          "_0": "tandaId ID of the newly created Tanda"
        }
      },
      "getActiveTandaIds()": {
        "returns": {
          "_0": "Array of active Tanda IDs"
        }
      },
      "getTandaAddress(uint256)": {
        "params": {
          "tandaId": "ID of the Tanda"
        },
        "returns": {
          "_0": "Tanda contract address"
        }
      },
      "getTandaParameters(uint256)": {
        "params": {
          "tandaId": "ID of the Tanda"
        },
        "returns": {
          "contributionAmount": "USDC contribution amount",
          "gracePeriod": "Grace period in seconds",
          "participantCount": "Number of participants",
          "payoutInterval": "Payout interval in seconds"
        }
      },
      "getUsdcAddress()": {
        "returns": {
          "_0": "USDC contract address"
        }
      },
      "getVRFConfig()": {
        "returns": {
          "_0": "Current subscription ID",
          "_1": "Current gas lane",
          "_2": "Current callback gas limit",
          "_3": "Current request confirmations",
          "_4": "Current number of words",
          "_5": "Current native payment setting"
        }
      },
      "isTandaActive(uint256)": {
        "params": {
          "tandaId": "ID of the Tanda to check"
        },
        "returns": {
          "_0": "True if active, false otherwise"
        }
      },
      "requestRandomnessForTanda(uint256)": {
        "details": "Only callable by Tanda contracts",
        "params": {
          "tandaId": "ID of the Tanda requesting randomness"
        }
      },
      "updateVRFConfig(uint256,bytes32,uint32,uint16,uint32,bool)": {
        "params": {
          "_callbackGasLimit": "New callback gas limit",
          "_gasLane": "New gas lane key hash",
          "_nativePayment": "Whether to pay for VRF in native token or LINK",
          "_numWords": "New number of random words to request",
          "_requestConfirmations": "New number of request confirmations",
          "_subscriptionId": "New subscription ID"
        }
      }
    },
    "version": 1
  },
  "userdoc": {
    "kind": "user",
    "methods": {
      "acceptOwnership()": {
        "notice": "Allows an ownership transfer to be completed by the recipient."
      },
      "createTanda(uint256,uint256,uint16,uint256)": {
        "notice": "Create a new Tanda"
      },
      "getActiveTandaIds()": {
        "notice": "Get all active Tanda IDs"
      },
      "getTandaAddress(uint256)": {
        "notice": "Get Tanda contract address by ID"
      },
      "getTandaParameters(uint256)": {
        "notice": "Get Tanda creation parameters"
      },
      "getUsdcAddress()": {
        "notice": "Get USDC token address"
      },
      "getVRFConfig()": {
        "notice": "Get current VRF configuration"
      },
      "isTandaActive(uint256)": {
        "notice": "Check if Tanda is active"
      },
      "owner()": {
        "notice": "Get the current owner"
      },
      "requestRandomnessForTanda(uint256)": {
        "notice": "Request randomness for payout order assignment"
      },
      "requestRandomnessForTandaTest()": {
        "notice": "Request randomness for payout order assignment (test function)"
      },
      "setCoordinator(address)": {
        "notice": "Sets the VRF Coordinator addressThis method should only be callable by the coordinator or contract owner"
      },
      "transferOwnership(address)": {
        "notice": "Allows an owner to begin transferring ownership to a new address."
      },
      "updateVRFConfig(uint256,bytes32,uint32,uint16,uint32,bool)": {
        "notice": "Update VRF configuration parameters"
      }
    },
    "version": 1
  },
  "storageLayout": {
    "storage": [
      {
        "astId": 29,
        "contract": "contracts/TandaManager.sol:TandaManager",
        "label": "s_owner",
        "offset": 0,
        "slot": "0",
        "type": "t_address"
      },
      {
        "astId": 31,
        "contract": "contracts/TandaManager.sol:TandaManager",
        "label": "s_pendingOwner",
        "offset": 0,
        "slot": "1",
        "type": "t_address"
      },
      {
        "astId": 231,
        "contract": "contracts/TandaManager.sol:TandaManager",
        "label": "s_vrfCoordinator",
        "offset": 0,
        "slot": "2",
        "type": "t_contract(IVRFCoordinatorV2Plus)380"
      },
      {
        "astId": 2444,
        "contract": "contracts/TandaManager.sol:TandaManager",
        "label": "subscriptionId",
        "offset": 0,
        "slot": "3",
        "type": "t_uint256"
      },
      {
        "astId": 2446,
        "contract": "contracts/TandaManager.sol:TandaManager",
        "label": "gasLane",
        "offset": 0,
        "slot": "4",
        "type": "t_bytes32"
      },
      {
        "astId": 2448,
        "contract": "contracts/TandaManager.sol:TandaManager",
        "label": "callbackGasLimit",
        "offset": 0,
        "slot": "5",
        "type": "t_uint32"
      },
      {
        "astId": 2451,
        "contract": "contracts/TandaManager.sol:TandaManager",
        "label": "requestConfirmations",
        "offset": 4,
        "slot": "5",
        "type": "t_uint16"
      },
      {
        "astId": 2454,
        "contract": "contracts/TandaManager.sol:TandaManager",
        "label": "numWords",
        "offset": 6,
        "slot": "5",
        "type": "t_uint32"
      },
      {
        "astId": 2457,
        "contract": "contracts/TandaManager.sol:TandaManager",
        "label": "nativePayment",
        "offset": 10,
        "slot": "5",
        "type": "t_bool"
      },
      {
        "astId": 2461,
        "contract": "contracts/TandaManager.sol:TandaManager",
        "label": "nextTandaId",
        "offset": 0,
        "slot": "6",
        "type": "t_uint256"
      },
      {
        "astId": 2465,
        "contract": "contracts/TandaManager.sol:TandaManager",
        "label": "tandaIdToAddress",
        "offset": 0,
        "slot": "7",
        "type": "t_mapping(t_uint256,t_address)"
      },
      {
        "astId": 2469,
        "contract": "contracts/TandaManager.sol:TandaManager",
        "label": "vrfRequestIdToTandaId",
        "offset": 0,
        "slot": "8",
        "type": "t_mapping(t_uint256,t_uint256)"
      },
      {
        "astId": 2473,
        "contract": "contracts/TandaManager.sol:TandaManager",
        "label": "activeTandas",
        "offset": 0,
        "slot": "9",
        "type": "t_mapping(t_uint256,t_bool)"
      }
    ],
    "types": {
      "t_address": {
        "encoding": "inplace",
        "label": "address",
        "numberOfBytes": "20"
      },
      "t_bool": {
        "encoding": "inplace",
        "label": "bool",
        "numberOfBytes": "1"
      },
      "t_bytes32": {
        "encoding": "inplace",
        "label": "bytes32",
        "numberOfBytes": "32"
      },
      "t_contract(IVRFCoordinatorV2Plus)380": {
        "encoding": "inplace",
        "label": "contract IVRFCoordinatorV2Plus",
        "numberOfBytes": "20"
      },
      "t_mapping(t_uint256,t_address)": {
        "encoding": "mapping",
        "key": "t_uint256",
        "label": "mapping(uint256 => address)",
        "numberOfBytes": "32",
        "value": "t_address"
      },
      "t_mapping(t_uint256,t_bool)": {
        "encoding": "mapping",
        "key": "t_uint256",
        "label": "mapping(uint256 => bool)",
        "numberOfBytes": "32",
        "value": "t_bool"
      },
      "t_mapping(t_uint256,t_uint256)": {
        "encoding": "mapping",
        "key": "t_uint256",
        "label": "mapping(uint256 => uint256)",
        "numberOfBytes": "32",
        "value": "t_uint256"
      },
      "t_uint16": {
        "encoding": "inplace",
        "label": "uint16",
        "numberOfBytes": "2"
      },
      "t_uint256": {
        "encoding": "inplace",
        "label": "uint256",
        "numberOfBytes": "32"
      },
      "t_uint32": {
        "encoding": "inplace",
        "label": "uint32",
        "numberOfBytes": "4"
      }
    }
  }
}