{
  "address": "0xc49661E04dc464efD7954b98bDD707D1fa49DeF4",
  "abi": [
    {
      "inputs": [
        {
          "internalType": "address",
          "name": "_vrfCoordinator",
          "type": "address"
        },
        {
          "internalType": "uint256",
          "name": "_subscriptionId",
          "type": "uint256"
        },
        {
          "internalType": "bytes32",
          "name": "_gasLane",
          "type": "bytes32"
        },
        {
          "internalType": "uint32",
          "name": "_callbackGasLimit",
          "type": "uint32"
        },
        {
          "internalType": "address",
          "name": "_usdcAddress",
          "type": "address"
        }
      ],
      "stateMutability": "nonpayable",
      "type": "constructor"
    },
    {
      "inputs": [
        {
          "internalType": "address",
          "name": "have",
          "type": "address"
        },
        {
          "internalType": "address",
          "name": "want",
          "type": "address"
        }
      ],
      "name": "OnlyCoordinatorCanFulfill",
      "type": "error"
    },
    {
      "inputs": [
        {
          "internalType": "address",
          "name": "have",
          "type": "address"
        },
        {
          "internalType": "address",
          "name": "owner",
          "type": "address"
        },
        {
          "internalType": "address",
          "name": "coordinator",
          "type": "address"
        }
      ],
      "name": "OnlyOwnerOrCoordinator",
      "type": "error"
    },
    {
      "inputs": [],
      "name": "ZeroAddress",
      "type": "error"
    },
    {
      "anonymous": false,
      "inputs": [
        {
          "indexed": false,
          "internalType": "address",
          "name": "vrfCoordinator",
          "type": "address"
        }
      ],
      "name": "CoordinatorSet",
      "type": "event"
    },
    {
      "anonymous": false,
      "inputs": [
        {
          "indexed": true,
          "internalType": "address",
          "name": "from",
          "type": "address"
        },
        {
          "indexed": true,
          "internalType": "address",
          "name": "to",
          "type": "address"
        }
      ],
      "name": "OwnershipTransferRequested",
      "type": "event"
    },
    {
      "anonymous": false,
      "inputs": [
        {
          "indexed": true,
          "internalType": "address",
          "name": "from",
          "type": "address"
        },
        {
          "indexed": true,
          "internalType": "address",
          "name": "to",
          "type": "address"
        }
      ],
      "name": "OwnershipTransferred",
      "type": "event"
    },
    {
      "anonymous": false,
      "inputs": [
        {
          "indexed": true,
          "internalType": "uint256",
          "name": "tandaId",
          "type": "uint256"
        }
      ],
      "name": "PayoutOrderAssigned",
      "type": "event"
    },
    {
      "anonymous": false,
      "inputs": [
        {
          "indexed": true,
          "internalType": "uint256",
          "name": "tandaId",
          "type": "uint256"
        },
        {
          "indexed": true,
          "internalType": "uint256",
          "name": "requestId",
          "type": "uint256"
        }
      ],
      "name": "RandomnessRequested",
      "type": "event"
    },
    {
      "anonymous": false,
      "inputs": [
        {
          "indexed": true,
          "internalType": "uint256",
          "name": "tandaId",
          "type": "uint256"
        },
        {
          "indexed": true,
          "internalType": "address",
          "name": "tandaAddress",
          "type": "address"
        },
        {
          "indexed": false,
          "internalType": "uint256",
          "name": "contributionAmount",
          "type": "uint256"
        },
        {
          "indexed": false,
          "internalType": "uint256",
          "name": "payoutInterval",
          "type": "uint256"
        },
        {
          "indexed": false,
          "internalType": "uint16",
          "name": "participantCount",
          "type": "uint16"
        },
        {
          "indexed": false,
          "internalType": "uint256",
          "name": "gracePeriod",
          "type": "uint256"
        },
        {
          "indexed": false,
          "internalType": "address",
          "name": "creator",
          "type": "address"
        }
      ],
      "name": "TandaCreated",
      "type": "event"
    },
    {
      "anonymous": false,
      "inputs": [
        {
          "indexed": false,
          "internalType": "uint256",
          "name": "newSubscriptionId",
          "type": "uint256"
        },
        {
          "indexed": false,
          "internalType": "bytes32",
          "name": "newGasLane",
          "type": "bytes32"
        },
        {
          "indexed": false,
          "internalType": "uint32",
          "name": "newCallbackGasLimit",
          "type": "uint32"
        },
        {
          "indexed": false,
          "internalType": "uint16",
          "name": "newRequestConfirmations",
          "type": "uint16"
        },
        {
          "indexed": false,
          "internalType": "uint32",
          "name": "newNumWords",
          "type": "uint32"
        },
        {
          "indexed": false,
          "internalType": "bool",
          "name": "newNativePayment",
          "type": "bool"
        }
      ],
      "name": "VRFConfigUpdated",
      "type": "event"
    },
    {
      "inputs": [],
      "name": "acceptOwnership",
      "outputs": [],
      "stateMutability": "nonpayable",
      "type": "function"
    },
    {
      "inputs": [
        {
          "internalType": "uint256",
          "name": "",
          "type": "uint256"
        }
      ],
      "name": "activeTandas",
      "outputs": [
        {
          "internalType": "bool",
          "name": "",
          "type": "bool"
        }
      ],
      "stateMutability": "view",
      "type": "function"
    },
    {
      "inputs": [
        {
          "internalType": "uint256",
          "name": "_contributionAmount",
          "type": "uint256"
        },
        {
          "internalType": "uint256",
          "name": "_payoutInterval",
          "type": "uint256"
        },
        {
          "internalType": "uint16",
          "name": "_participantCount",
          "type": "uint16"
        },
        {
          "internalType": "uint256",
          "name": "_gracePeriod",
          "type": "uint256"
        }
      ],
      "name": "createTanda",
      "outputs": [
        {
          "internalType": "uint256",
          "name": "",
          "type": "uint256"
        }
      ],
      "stateMutability": "nonpayable",
      "type": "function"
    },
    {
      "inputs": [],
      "name": "getActiveTandaIds",
      "outputs": [
        {
          "internalType": "uint256[]",
          "name": "",
          "type": "uint256[]"
        }
      ],
      "stateMutability": "view",
      "type": "function"
    },
    {
      "inputs": [
        {
          "internalType": "uint256",
          "name": "tandaId",
          "type": "uint256"
        }
      ],
      "name": "getTandaAddress",
      "outputs": [
        {
          "internalType": "address",
          "name": "",
          "type": "address"
        }
      ],
      "stateMutability": "view",
      "type": "function"
    },
    {
      "inputs": [
        {
          "internalType": "uint256",
          "name": "tandaId",
          "type": "uint256"
        }
      ],
      "name": "getTandaData",
      "outputs": [
        {
          "components": [
            {
              "internalType": "uint256",
              "name": "tandaId",
              "type": "uint256"
            },
            {
              "internalType": "uint256",
              "name": "contributionAmount",
              "type": "uint256"
            },
            {
              "internalType": "uint256",
              "name": "payoutInterval",
              "type": "uint256"
            },
            {
              "internalType": "uint16",
              "name": "participantCount",
              "type": "uint16"
            },
            {
              "internalType": "uint256",
              "name": "gracePeriod",
              "type": "uint256"
            },
            {
              "internalType": "address",
              "name": "creator",
              "type": "address"
            },
            {
              "internalType": "address",
              "name": "usdcTokenAddress",
              "type": "address"
            },
            {
              "internalType": "address",
              "name": "managerAddress",
              "type": "address"
            },
            {
              "internalType": "address",
              "name": "tandaAddress",
              "type": "address"
            }
          ],
          "internalType": "struct GeneralInfo",
          "name": "generalInfo",
          "type": "tuple"
        },
        {
          "components": [
            {
              "internalType": "enum Tanda.TandaState",
              "name": "state",
              "type": "uint8"
            },
            {
              "internalType": "uint256",
              "name": "currentCycle",
              "type": "uint256"
            },
            {
              "internalType": "uint256",
              "name": "totalParticipants",
              "type": "uint256"
            },
            {
              "internalType": "uint256",
              "name": "totalFunds",
              "type": "uint256"
            },
            {
              "internalType": "uint256",
              "name": "nextPayoutTimestamp",
              "type": "uint256"
            },
            {
              "internalType": "uint256",
              "name": "startTimestamp",
              "type": "uint256"
            },
            {
              "internalType": "bool",
              "name": "payoutOrderAssigned",
              "type": "bool"
            },
            {
              "internalType": "bool",
              "name": "isActive",
              "type": "bool"
            },
            {
              "internalType": "bool",
              "name": "isOpen",
              "type": "bool"
            },
            {
              "internalType": "bool",
              "name": "isCompleted",
              "type": "bool"
            },
            {
              "internalType": "uint256",
              "name": "participantListLength",
              "type": "uint256"
            }
          ],
          "internalType": "struct CurrentStatus",
          "name": "currentStatus",
          "type": "tuple"
        },
        {
          "internalType": "uint256[]",
          "name": "payoutOrderInfo",
          "type": "uint256[]"
        }
      ],
      "stateMutability": "view",
      "type": "function"
    },
    {
      "inputs": [],
      "name": "getUsdcAddress",
      "outputs": [
        {
          "internalType": "address",
          "name": "",
          "type": "address"
        }
      ],
      "stateMutability": "view",
      "type": "function"
    },
    {
      "inputs": [],
      "name": "getVRFConfig",
      "outputs": [
        {
          "internalType": "uint256",
          "name": "",
          "type": "uint256"
        },
        {
          "internalType": "bytes32",
          "name": "",
          "type": "bytes32"
        },
        {
          "internalType": "uint32",
          "name": "",
          "type": "uint32"
        },
        {
          "internalType": "uint16",
          "name": "",
          "type": "uint16"
        },
        {
          "internalType": "uint32",
          "name": "",
          "type": "uint32"
        },
        {
          "internalType": "bool",
          "name": "",
          "type": "bool"
        }
      ],
      "stateMutability": "view",
      "type": "function"
    },
    {
      "inputs": [
        {
          "internalType": "uint256",
          "name": "tandaId",
          "type": "uint256"
        }
      ],
      "name": "isTandaActive",
      "outputs": [
        {
          "internalType": "bool",
          "name": "",
          "type": "bool"
        }
      ],
      "stateMutability": "view",
      "type": "function"
    },
    {
      "inputs": [],
      "name": "nextTandaId",
      "outputs": [
        {
          "internalType": "uint256",
          "name": "",
          "type": "uint256"
        }
      ],
      "stateMutability": "view",
      "type": "function"
    },
    {
      "inputs": [],
      "name": "owner",
      "outputs": [
        {
          "internalType": "address",
          "name": "",
          "type": "address"
        }
      ],
      "stateMutability": "view",
      "type": "function"
    },
    {
      "inputs": [
        {
          "internalType": "uint256",
          "name": "requestId",
          "type": "uint256"
        },
        {
          "internalType": "uint256[]",
          "name": "randomWords",
          "type": "uint256[]"
        }
      ],
      "name": "rawFulfillRandomWords",
      "outputs": [],
      "stateMutability": "nonpayable",
      "type": "function"
    },
    {
      "inputs": [
        {
          "internalType": "uint256",
          "name": "tandaId",
          "type": "uint256"
        }
      ],
      "name": "requestRandomnessForTanda",
      "outputs": [],
      "stateMutability": "nonpayable",
      "type": "function"
    },
    {
      "inputs": [
        {
          "internalType": "uint256",
          "name": "tandaId",
          "type": "uint256"
        }
      ],
      "name": "requestRandomnessForTandaTest",
      "outputs": [
        {
          "internalType": "uint256",
          "name": "",
          "type": "uint256"
        }
      ],
      "stateMutability": "nonpayable",
      "type": "function"
    },
    {
      "inputs": [],
      "name": "s_vrfCoordinator",
      "outputs": [
        {
          "internalType": "contract IVRFCoordinatorV2Plus",
          "name": "",
          "type": "address"
        }
      ],
      "stateMutability": "view",
      "type": "function"
    },
    {
      "inputs": [
        {
          "internalType": "address",
          "name": "_vrfCoordinator",
          "type": "address"
        }
      ],
      "name": "setCoordinator",
      "outputs": [],
      "stateMutability": "nonpayable",
      "type": "function"
    },
    {
      "inputs": [
        {
          "internalType": "uint256",
          "name": "",
          "type": "uint256"
        }
      ],
      "name": "tandaIdToAddress",
      "outputs": [
        {
          "internalType": "address",
          "name": "",
          "type": "address"
        }
      ],
      "stateMutability": "view",
      "type": "function"
    },
    {
      "inputs": [
        {
          "internalType": "address",
          "name": "to",
          "type": "address"
        }
      ],
      "name": "transferOwnership",
      "outputs": [],
      "stateMutability": "nonpayable",
      "type": "function"
    },
    {
      "inputs": [
        {
          "internalType": "uint256",
          "name": "_subscriptionId",
          "type": "uint256"
        },
        {
          "internalType": "bytes32",
          "name": "_gasLane",
          "type": "bytes32"
        },
        {
          "internalType": "uint32",
          "name": "_callbackGasLimit",
          "type": "uint32"
        },
        {
          "internalType": "uint16",
          "name": "_requestConfirmations",
          "type": "uint16"
        },
        {
          "internalType": "uint32",
          "name": "_numWords",
          "type": "uint32"
        },
        {
          "internalType": "bool",
          "name": "_nativePayment",
          "type": "bool"
        }
      ],
      "name": "updateVRFConfig",
      "outputs": [],
      "stateMutability": "nonpayable",
      "type": "function"
    },
    {
      "inputs": [],
      "name": "usdcAddress",
      "outputs": [
        {
          "internalType": "address",
          "name": "",
          "type": "address"
        }
      ],
      "stateMutability": "view",
      "type": "function"
    },
    {
      "inputs": [
        {
          "internalType": "uint256",
          "name": "",
          "type": "uint256"
        }
      ],
      "name": "vrfRequestIdToTandaId",
      "outputs": [
        {
          "internalType": "uint256",
          "name": "",
          "type": "uint256"
        }
      ],
      "stateMutability": "view",
      "type": "function"
    }
  ],
  "transactionHash": "0xf9594431b8b315d0e1aad4c8aca67aad6b21b2dc51e21abc4fb0d44b8b264963",
  "args": [
    "0x5C210eF41CD1a72de73bF76eC39637bB0d3d7BEE",
    "17652650031881938556899546254523775603114927968482728430038901064991564696628",
    "0x9e1344a1247c8a1785d0a4681a27152bffdb43666ae5bf7d14d24a5efd44bf71",
    "2500000",
    "0x8D352ac15ae5355adae6a6545B9E53a00C99E99f"
  ],
  "numDeployments": 23,
  "solcInputHash": "aaacc73b4a42fecc7ac4cfe2fcfe7636",
  "bytecode": "0x60a06040526005805466ffffffffffffff60201b19166a01000000010003000000001790553480156200003157600080fd5b50604051620053a9380380620053a98339810160408190526200005491620002ce565b843380600081620000ac5760405162461bcd60e51b815260206004820152601860248201527f43616e6e6f7420736574206f776e657220746f207a65726f000000000000000060448201526064015b60405180910390fd5b600080546001600160a01b0319166001600160a01b0384811691909117909155811615620000df57620000df8162000206565b5050506001600160a01b0381166200010a5760405163d92e233d60e01b815260040160405180910390fd5b600280546001600160a01b0319166001600160a01b039283161790558516620001765760405162461bcd60e51b815260206004820152601760248201527f496e76616c69642056524620636f6f7264696e61746f720000000000000000006044820152606401620000a3565b6001600160a01b038116620001ce5760405162461bcd60e51b815260206004820152601460248201527f496e76616c6964205553444320616464726573730000000000000000000000006044820152606401620000a3565b6003939093556004919091556005805463ffffffff191663ffffffff9092169190911790556001600160a01b03166080525062000336565b336001600160a01b03821603620002605760405162461bcd60e51b815260206004820152601760248201527f43616e6e6f74207472616e7366657220746f2073656c660000000000000000006044820152606401620000a3565b600180546001600160a01b0319166001600160a01b0383811691821790925560008054604051929316917fed8889f560326eb138920d842192f0eb3dd22b4f139c87a2c57538e05bae12789190a350565b80516001600160a01b0381168114620002c957600080fd5b919050565b600080600080600060a08688031215620002e757600080fd5b620002f286620002b1565b94506020860151935060408601519250606086015163ffffffff811681146200031a57600080fd5b91506200032a60808701620002b1565b90509295509295909350565b608051615050620003596000396000818161015c01526103d501526150506000f3fe60806040523480156200001157600080fd5b5060043610620001515760003560e01c80638ce8fb5711620000c75780639bb0c0b911620000865780639bb0c0b9146200037a5780639eccacf61462000393578063c1a2834114620003a7578063dbe0b5b214620003d3578063e7e66ae214620003fa578063f2fde38b146200041157600080fd5b80638ce8fb5714620002c05780638da5cb5b14620002ca5780638ea9811714620002dc57806397b509be14620002f35780639a5ea6a0146200031957600080fd5b80636a1ea73411620001145780636a1ea73414620002455780636d4dd34314620002715780636fa64ffd146200028857806379038f98146200029f57806379ba509714620002b657600080fd5b806302d4545714620001565780631fe543e3146200019b578063235f1e1414620001b457806336d1ee1214620001e65780634f5c8045146200021d575b600080fd5b6200017e7f000000000000000000000000000000000000000000000000000000000000000081565b6040516001600160a01b0390911681526020015b60405180910390f35b620001b2620001ac366004620019db565b62000428565b005b620001d7620001c536600462001a5f565b60086020526000908152604090205481565b60405190815260200162000192565b6200020c620001f736600462001a5f565b60009081526009602052604090205460ff1690565b604051901515815260200162000192565b620002346200022e36600462001a5f565b62000480565b604051620001929392919062001b7e565b6200017e6200025636600462001a5f565b6000908152600760205260409020546001600160a01b031690565b620001b26200028236600462001c7a565b62000d34565b620001d76200029936600462001cef565b62000e02565b620001d7620002b036600462001a5f565b62001127565b620001b262001283565b620001d760065481565b6000546001600160a01b03166200017e565b620001b2620002ed36600462001d47565b6200132f565b6200020c6200030436600462001a5f565b60096020526000908152604090205460ff1681565b60035460045460055460408051938452602084019290925263ffffffff80821692840192909252640100000000810461ffff166060840152600160301b81049091166080830152600160501b900460ff16151560a082015260c00162000192565b6200038462001426565b60405162000192919062001d6e565b6002546200017e906001600160a01b031681565b6200017e620003b836600462001a5f565b6007602052600090815260409020546001600160a01b031681565b7f00000000000000000000000000000000000000000000000000000000000000006200017e565b620001b26200040b36600462001a5f565b62001536565b620001b26200042236600462001d47565b62001718565b6002546001600160a01b031633146200046e5760025460405163073e64fd60e21b81523360048201526001600160a01b0390911660248201526044015b60405180910390fd5b6200047b83838362001730565b505050565b6040805161012081018252600080825260208201819052918101829052606081018290526080810182905260a0810182905260c0810182905260e081018290526101008101919091526200053060408051610160810190915280600081526020016000815260200160008152602001600081526020016000815260200160008152602001600015158152602001600015158152602001600015158152602001600015158152602001600081525090565b6000838152600760205260409020546060906001600160a01b0316806200058d5760405162461bcd60e51b815260206004820152601060248201526f125b9d985b1a590815185b991848125160821b604482015260640162000465565b6000819050604051806101200160405280878152602001826001600160a01b0316635fa0b65f6040518163ffffffff1660e01b8152600401602060405180830381865afa158015620005e3573d6000803e3d6000fd5b505050506040513d601f19601f8201168201806040525081019062000609919062001d83565b8152602001826001600160a01b03166309e785e16040518163ffffffff1660e01b8152600401602060405180830381865afa1580156200064d573d6000803e3d6000fd5b505050506040513d601f19601f8201168201806040525081019062000673919062001d83565b8152602001826001600160a01b031663362f04c06040518163ffffffff1660e01b8152600401602060405180830381865afa158015620006b7573d6000803e3d6000fd5b505050506040513d601f19601f82011682018060405250810190620006dd919062001d9d565b61ffff168152602001826001600160a01b031663a06db7dc6040518163ffffffff1660e01b8152600401602060405180830381865afa15801562000725573d6000803e3d6000fd5b505050506040513d601f19601f820116820180604052508101906200074b919062001d83565b8152602001826001600160a01b03166302d05d3f6040518163ffffffff1660e01b8152600401602060405180830381865afa1580156200078f573d6000803e3d6000fd5b505050506040513d601f19601f82011682018060405250810190620007b5919062001dbd565b6001600160a01b03168152602001826001600160a01b03166311eac8556040518163ffffffff1660e01b8152600401602060405180830381865afa15801562000802573d6000803e3d6000fd5b505050506040513d601f19601f8201168201806040525081019062000828919062001dbd565b6001600160a01b03168152602001826001600160a01b031663481c6a756040518163ffffffff1660e01b8152600401602060405180830381865afa15801562000875573d6000803e3d6000fd5b505050506040513d601f19601f820116820180604052508101906200089b919062001dbd565b6001600160a01b03168152602001836001600160a01b031681525094506000806000806000856001600160a01b031663570c69cd6040518163ffffffff1660e01b815260040160a060405180830381865afa158015620008ff573d6000803e3d6000fd5b505050506040513d601f19601f8201168201806040525081019062000925919062001ded565b945094509450945094506000866001600160a01b031663195ec9ee6040518163ffffffff1660e01b8152600401600060405180830381865afa15801562000970573d6000803e3d6000fd5b505050506040513d6000823e601f3d908101601f191682016040526200099a919081019062001ed4565b9050604051806101600160405280876002811115620009bd57620009bd62001a79565b8152602001868152602001858152602001848152602001838152602001886001600160a01b031663e6fd48bc6040518163ffffffff1660e01b8152600401602060405180830381865afa15801562000a19573d6000803e3d6000fd5b505050506040513d601f19601f8201168201806040525081019062000a3f919062001d83565b8152602001886001600160a01b031663aaa83e5a6040518163ffffffff1660e01b8152600401602060405180830381865afa15801562000a83573d6000803e3d6000fd5b505050506040513d601f19601f8201168201806040525081019062000aa9919062001fe3565b151581526020016001896001600160a01b031663c19d93fb6040518163ffffffff1660e01b8152600401602060405180830381865afa15801562000af1573d6000803e3d6000fd5b505050506040513d601f19601f8201168201806040525081019062000b17919062002003565b600281111562000b2b5762000b2b62001a79565b1481526020016000896001600160a01b031663c19d93fb6040518163ffffffff1660e01b8152600401602060405180830381865afa15801562000b72573d6000803e3d6000fd5b505050506040513d601f19601f8201168201806040525081019062000b98919062002003565b600281111562000bac5762000bac62001a79565b1481526020016002896001600160a01b031663c19d93fb6040518163ffffffff1660e01b8152600401602060405180830381865afa15801562000bf3573d6000803e3d6000fd5b505050506040513d601f19601f8201168201806040525081019062000c19919062002003565b600281111562000c2d5762000c2d62001a79565b141515815260200182518152509950866001600160a01b031663aaa83e5a6040518163ffffffff1660e01b8152600401602060405180830381865afa15801562000c7b573d6000803e3d6000fd5b505050506040513d601f19601f8201168201806040525081019062000ca1919062001fe3565b62000cbb5760408051600081526020810190915262000d24565b866001600160a01b03166343662f4e6040518163ffffffff1660e01b8152600401600060405180830381865afa15801562000cfa573d6000803e3d6000fd5b505050506040513d6000823e601f3d908101601f1916820160405262000d24919081019062002021565b9a9c999b50505050505050505050565b62000d3e62001859565b600386905560048590556005805463ffffffff86811665ffffffffffff19909216821764010000000061ffff8816908102919091176affffffffff0000000000001916600160301b92871692830260ff60501b191617600160501b86151590810291909117909455604080518b8152602081018b9052908101939093526060830152608082015260a08101919091527f0cdc489fece0d7f3035beb01347b6783f88e92de0888eac9f152d6974f82abb99060c00160405180910390a1505050505050565b60006298968085101562000e595760405162461bcd60e51b815260206004820152601c60248201527f4d696e696d756d20636f6e747269627574696f6e203130205553444300000000604482015260640162000465565b62278d0084111562000eae5760405162461bcd60e51b815260206004820152601860248201527f4d6178696d756d20696e74657276616c20333020646179730000000000000000604482015260640162000465565b60028361ffff16101562000efe5760405162461bcd60e51b81526020600482015260166024820152754d696e696d756d2032207061727469636970616e747360501b604482015260640162000465565b60328361ffff16111562000f555760405162461bcd60e51b815260206004820152601760248201527f4d6178696d756d203530207061727469636970616e7473000000000000000000604482015260640162000465565b6201518082101562000faa5760405162461bcd60e51b815260206004820152601a60248201527f4d696e696d756d20677261636520706572696f64203120646179000000000000604482015260640162000465565b62093a8082111562000fff5760405162461bcd60e51b815260206004820152601b60248201527f4d6178696d756d20677261636520706572696f64203720646179730000000000604482015260640162000465565b60068054600091826200101283620020bb565b9190505590506000818787878730336040516200102f90620019cd565b9687526020870195909552604086019390935261ffff909116606085015260808401526001600160a01b0390811660a08401521660c082015260e001604051809103906000f08015801562001088573d6000803e3d6000fd5b50600083815260076020908152604080832080546001600160a01b0319166001600160a01b0386169081179091556009835292819020805460ff1916600117905580518b81529182018a905261ffff891690820152606081018790523360808201529192509083907f2940fca0fb20f9c88f11423e7bc9b5ad283a937caed7568cb40ab1b736a89e459060a00160405180910390a35095945050505050565b60008181526009602052604081205460ff166200117d5760405162461bcd60e51b815260206004820152601360248201527254616e6461206973206e6f742061637469766560681b604482015260640162000465565b6002546040805160c0810182526004548152600354602080830191909152600554640100000000810461ffff168385015263ffffffff8082166060850152600160301b82041660808401528351918201909352600160501b90920460ff16151582526000926001600160a01b031691639b1c385e919060a08201906200120390620018b0565b8152506040518263ffffffff1660e01b8152600401620012249190620020e3565b6020604051808303816000875af115801562001244573d6000803e3d6000fd5b505050506040513d601f19601f820116820180604052508101906200126a919062001d83565b6000818152600860205260409020939093555090919050565b6001546001600160a01b03163314620012d85760405162461bcd60e51b815260206004820152601660248201527526bab9ba10313290383937b837b9b2b21037bbb732b960511b604482015260640162000465565b60008054336001600160a01b0319808316821784556001805490911690556040516001600160a01b0390921692909183917f8be0079c531659141344cd1fd0a4f28419497f9722a3daafe3b4186f6b6457e091a350565b6000546001600160a01b031633148015906200135657506002546001600160a01b03163314155b15620013aa5733620013706000546001600160a01b031690565b60025460405163061db9c160e01b81526001600160a01b039384166004820152918316602483015291909116604482015260640162000465565b6001600160a01b038116620013d25760405163d92e233d60e01b815260040160405180910390fd5b600280546001600160a01b0319166001600160a01b0383169081179091556040519081527fd1a6a14209a385a964d036e404cb5cfb71f4000cdb03c9366292430787261be69060200160405180910390a150565b60606000805b600654811015620014745760008181526009602052604090205460ff16156200145f57816200145b81620020bb565b9250505b806200146b81620020bb565b9150506200142c565b5060008167ffffffffffffffff81111562001493576200149362001e37565b604051908082528060200260200182016040528015620014bd578160200160208202803683370190505b5090506000805b6006548110156200152d5760008181526009602052604090205460ff1615620015185780838381518110620014fd57620014fd62002181565b6020908102919091010152816200151481620020bb565b9250505b806200152481620020bb565b915050620014c4565b50909392505050565b6000818152600760205260409020546001600160a01b03163314620015945760405162461bcd60e51b815260206004820152601360248201527243616c6c6572206973206e6f742054616e646160681b604482015260640162000465565b60008181526009602052604090205460ff16620015ea5760405162461bcd60e51b815260206004820152601360248201527254616e6461206973206e6f742061637469766560681b604482015260640162000465565b6002546040805160c0810182526004548152600354602080830191909152600554640100000000810461ffff168385015263ffffffff8082166060850152600160301b82041660808401528351918201909352600160501b90920460ff16151582526000926001600160a01b031691639b1c385e919060a08201906200167090620018b0565b8152506040518263ffffffff1660e01b8152600401620016919190620020e3565b6020604051808303816000875af1158015620016b1573d6000803e3d6000fd5b505050506040513d601f19601f82011682018060405250810190620016d7919062001d83565b60008181526008602052604080822085905551919250829184917f3d94fecedaa4f90b8bd459797adb95f5bb11426025c5541390d9ccc1ad1b60a191a35050565b6200172262001859565b6200172d8162001922565b50565b6000838152600860209081526040808320548084526007909252909120546001600160a01b0316620017985760405162461bcd60e51b815260206004820152601060248201526f125b9d985b1a590815185b991848125160821b604482015260640162000465565b6000818152600760205260408120546001600160a01b031690819063c84979f3908690869081620017cd57620017cd62002181565b905060200201356040518263ffffffff1660e01b8152600401620017f391815260200190565b600060405180830381600087803b1580156200180e57600080fd5b505af115801562001823573d6000803e3d6000fd5b50506040518492507f58206d7b6e1a94532dbabfe2fc0e526166ba6025e005b4cb7d2c31248fe4fc9f9150600090a25050505050565b6000546001600160a01b03163314620018ae5760405162461bcd60e51b815260206004820152601660248201527527b7363c9031b0b63630b1363290313c9037bbb732b960511b604482015260640162000465565b565b60607f92fd13387c7fe7befbc38d303d6468778fb9731bc4583f17d92989c6fcfdeaaa82604051602401620018ea91511515815260200190565b60408051601f198184030181529190526020810180516001600160e01b03166001600160e01b03199093169290921790915292915050565b336001600160a01b038216036200197c5760405162461bcd60e51b815260206004820152601760248201527f43616e6e6f74207472616e7366657220746f2073656c66000000000000000000604482015260640162000465565b600180546001600160a01b0319166001600160a01b0383811691821790925560008054604051929316917fed8889f560326eb138920d842192f0eb3dd22b4f139c87a2c57538e05bae12789190a350565b612e83806200219883390190565b600080600060408486031215620019f157600080fd5b83359250602084013567ffffffffffffffff8082111562001a1157600080fd5b818601915086601f83011262001a2657600080fd5b81358181111562001a3657600080fd5b8760208260051b850101111562001a4c57600080fd5b6020830194508093505050509250925092565b60006020828403121562001a7257600080fd5b5035919050565b634e487b7160e01b600052602160045260246000fd5b6003811062001aae57634e487b7160e01b600052602160045260246000fd5b9052565b62001abf82825162001a8f565b6020810151602083015260408101516040830152606081015160608301526080810151608083015260a081015160a083015260c081015162001b0560c084018215159052565b5060e081015162001b1a60e084018215159052565b50610100818101511515908301526101208082015115159083015261014090810151910152565b600081518084526020808501945080840160005b8381101562001b735781518752958201959082019060010162001b55565b509495945050505050565b60006102a085518352602086015160208401526040860151604084015261ffff60608701511660608401526080860151608084015260018060a01b0360a08701511660a084015260c086015162001be060c08501826001600160a01b03169052565b5060e086015162001bfc60e08501826001600160a01b03169052565b50610100868101516001600160a01b03169084015262001c2161012084018662001ab2565b8061028084015262001c368184018562001b41565b9695505050505050565b803563ffffffff8116811462001c5557600080fd5b919050565b61ffff811681146200172d57600080fd5b80151581146200172d57600080fd5b60008060008060008060c0878903121562001c9457600080fd5b863595506020870135945062001cad6040880162001c40565b9350606087013562001cbf8162001c5a565b925062001ccf6080880162001c40565b915060a087013562001ce18162001c6b565b809150509295509295509295565b6000806000806080858703121562001d0657600080fd5b8435935060208501359250604085013562001d218162001c5a565b9396929550929360600135925050565b6001600160a01b03811681146200172d57600080fd5b60006020828403121562001d5a57600080fd5b813562001d678162001d31565b9392505050565b60208152600062001d67602083018462001b41565b60006020828403121562001d9657600080fd5b5051919050565b60006020828403121562001db057600080fd5b815162001d678162001c5a565b60006020828403121562001dd057600080fd5b815162001d678162001d31565b80516003811062001c5557600080fd5b600080600080600060a0868803121562001e0657600080fd5b62001e118662001ddd565b602087015160408801516060890151608090990151929a91995097965090945092505050565b634e487b7160e01b600052604160045260246000fd5b60405160c0810167ffffffffffffffff8111828210171562001e735762001e7362001e37565b60405290565b604051601f8201601f1916810167ffffffffffffffff8111828210171562001ea55762001ea562001e37565b604052919050565b600067ffffffffffffffff82111562001eca5762001eca62001e37565b5060051b60200190565b6000602080838503121562001ee857600080fd5b825167ffffffffffffffff81111562001f0057600080fd5b8301601f8101851362001f1257600080fd5b805162001f2962001f238262001ead565b62001e79565b81815260c0918202830184019184820191908884111562001f4957600080fd5b938501935b8385101562001fd75780858a03121562001f685760008081fd5b62001f7262001e4d565b855162001f7f8162001d31565b81528587015162001f908162001c6b565b818801526040868101519082015260608087015162001faf8162001c6b565b908201526080868101519082015260a080870151908201528352938401939185019162001f4e565b50979650505050505050565b60006020828403121562001ff657600080fd5b815162001d678162001c6b565b6000602082840312156200201657600080fd5b62001d678262001ddd565b600060208083850312156200203557600080fd5b825167ffffffffffffffff8111156200204d57600080fd5b8301601f810185136200205f57600080fd5b80516200207062001f238262001ead565b81815260059190911b820183019083810190878311156200209057600080fd5b928401925b82841015620020b05783518252928401929084019062002095565b979650505050505050565b600060018201620020dc57634e487b7160e01b600052601160045260246000fd5b5060010190565b6000602080835283518184015280840151604084015261ffff6040850151166060840152606084015163ffffffff80821660808601528060808701511660a0860152505060a084015160c08085015280518060e086015260005b818110156200215c57828101840151868201610100015283016200213d565b506101009250600083828701015282601f19601f830116860101935050505092915050565b634e487b7160e01b600052603260045260246000fdfe6101806040523480156200001257600080fd5b5060405162002e8338038062002e8383398101604081905262000035916200030f565b6001600055856200008d5760405162461bcd60e51b815260206004820152601f60248201527f436f6e747269627574696f6e20616d6f756e74206d757374206265203e20300060448201526064015b60405180910390fd5b60008511620000df5760405162461bcd60e51b815260206004820152601b60248201527f5061796f757420696e74657276616c206d757374206265203e20300000000000604482015260640162000084565b60028461ffff161015620001365760405162461bcd60e51b815260206004820152601f60248201527f4d696e696d756d2032207061727469636970616e747320726571756972656400604482015260640162000084565b60008311620001885760405162461bcd60e51b815260206004820152601860248201527f477261636520706572696f64206d757374206265203e20300000000000000000604482015260640162000084565b6001600160a01b038216620001e05760405162461bcd60e51b815260206004820152601760248201527f496e76616c6964206d616e616765722061646472657373000000000000000000604482015260640162000084565b6001600160a01b038116620002385760405162461bcd60e51b815260206004820152601760248201527f496e76616c69642063726561746f722061646472657373000000000000000000604482015260640162000084565b608087905260a086905260c085905261ffff84166101005260e08390526001600160a01b03821661012081905260408051636df05ad960e11b8152905163dbe0b5b2916004808201926020929091908290030181865afa158015620002a1573d6000803e3d6000fd5b505050506040513d601f19601f82011682018060405250810190620002c7919062000389565b6001600160a01b03908116610140526001805460ff19169055166101605250620003ae945050505050565b80516001600160a01b03811681146200030a57600080fd5b919050565b600080600080600080600060e0888a0312156200032b57600080fd5b875196506020880151955060408801519450606088015161ffff811681146200035357600080fd5b608089015190945092506200036b60a08901620002f2565b91506200037b60c08901620002f2565b905092959891949750929550565b6000602082840312156200039c57600080fd5b620003a782620002f2565b9392505050565b60805160a05160c05160e0516101005161012051610140516101605161297a620005096000396000818161022d01528181610ab10152818161139101526115830152600081816102ee0152818161079601528181610889015281816110f30152818161189e01528181611c9a0152611d8d0152600081816103c501528181611e5901526124360152600081816103760152818161072e0152818161090c01528181610e9701528181611039015281816111bc015281816117d701528181611aad01528181611c3201528181611e1001528181611f1901528181611f88015281816120070152818161206d0152612180015260006104d90152600081816102760152818161062a015281816112030152611b7e0152600081816104430152818161075001528181610eb9015281816110c0015281816118c201528181611a3f0152611c540152600081816105000152612410015261297a6000f3fe608060405234801561001057600080fd5b50600436106101f05760003560e01c8063570c69cd1161010f578063a224388e116100a2578063c19d93fb11610071578063c19d93fb14610540578063c2368d0b1461055a578063c84979f314610562578063e6fd48bc1461057557600080fd5b8063a224388e146104fb578063aaa83e5a14610522578063b688a3631461052f578063bab2f5521461053757600080fd5b8063924e6253116100de578063924e625314610498578063929066f5146104a0578063968ed600146104cb578063a06db7dc146104d457600080fd5b8063570c69cd146104255780635fa0b65f1461043e5780637143059f14610465578063729df2f31461048557600080fd5b806311eac8551161018757806343662f4e1161015657806343662f4e146103ab578063481c6a75146103c05780634c3b1939146103e75780635114cb521461041257600080fd5b806311eac855146102e9578063195ec9ee1461031057806335c1d34914610325578063362f04c01461037157600080fd5b80630ad08b86116101c35780630ad08b86146102985780630b529a17146102a05780630ce01474146102b35780630e15a196146102d657600080fd5b806301e2db35146101f557806302d05d3f1461022857806305a95f041461026757806309e785e114610271575b600080fd5b610215610203366004612588565b60066020526000908152604090205481565b6040519081526020015b60405180910390f35b61024f7f000000000000000000000000000000000000000000000000000000000000000081565b6040516001600160a01b03909116815260200161021f565b61026f61057e565b005b6102157f000000000000000000000000000000000000000000000000000000000000000081565b610215600f81565b6102156102ae3660046125b1565b61098f565b6102c66102c1366004612588565b6109b0565b604051901515815260200161021f565b61026f6102e4366004612588565b610aa6565b61024f7f000000000000000000000000000000000000000000000000000000000000000081565b610318610c95565b60405161021f919061260e565b6103386103333660046125b1565b610d40565b604080516001600160a01b03909716875294151560208701529385019290925215156060840152608083015260a082015260c00161021f565b6103987f000000000000000000000000000000000000000000000000000000000000000081565b60405161ffff909116815260200161021f565b6103b3610d9a565b60405161021f919061265c565b61024f7f000000000000000000000000000000000000000000000000000000000000000081565b6103ef610e15565b604080519384526001600160a01b0390921660208401529082015260600161021f565b61026f6104203660046125b1565b610ee5565b61042d6111a8565b60405161021f9594939291906126cc565b6102157f000000000000000000000000000000000000000000000000000000000000000081565b610478610473366004612588565b611245565b60405161021f91906126fc565b61026f610493366004612588565b611386565b61026f611578565b6102c66104ae366004612588565b6001600160a01b0316600090815260066020526040902054151590565b61021560045481565b6102157f000000000000000000000000000000000000000000000000000000000000000081565b6102157f000000000000000000000000000000000000000000000000000000000000000081565b6007546102c69060ff1681565b61026f611775565b61021560035481565b60015461054d9060ff1681565b60405161021f9190612710565b61026f611adb565b61026f6105703660046125b1565b611e4e565b61021560025481565b61058661224d565b6001805460ff16600281111561059e5761059e612694565b146105c45760405162461bcd60e51b81526004016105bb9061271e565b60405180910390fd5b60006005600860016003546105d99190612761565b815481106105e9576105e9612774565b90600052602060002001548154811061060457610604612774565b600091825260208220600590910201546003546001600160a01b03909116925061064f907f00000000000000000000000000000000000000000000000000000000000000009061278a565b60025461065c91906127a1565b9050804210156106ae5760405162461bcd60e51b815260206004820152601760248201527f5061796f75742074696d65206e6f74207265616368656400000000000000000060448201526064016105bb565b6106b6612277565b6107025760405162461bcd60e51b815260206004820152601e60248201527f4e6f7420616c6c207061727469636970616e747320686176652070616964000060448201526064016105bb565b60075460ff166107245760405162461bcd60e51b81526004016105bb906127b4565b600061077461ffff7f0000000000000000000000000000000000000000000000000000000000000000167f000000000000000000000000000000000000000000000000000000000000000061278a565b6040516370a0823160e01b815230600482015290915081906001600160a01b037f000000000000000000000000000000000000000000000000000000000000000016906370a0823190602401602060405180830381865afa1580156107dd573d6000803e3d6000fd5b505050506040513d601f19601f8201168201806040525081019061080191906127eb565b101561084f5760405162461bcd60e51b815260206004820152601d60248201527f496e73756666696369656e7420636f6e74726163742062616c616e636500000060448201526064016105bb565b6003805490600061085f83612804565b919050555080600460008282546108769190612761565b909155506108b090506001600160a01b037f000000000000000000000000000000000000000000000000000000000000000016848361230d565b826001600160a01b03167f1d2b6cb5f88d674645ff36bd6e4ea583bc3bea7dbb817b193201b90dc9eb47748260016003546108eb9190612761565b604080519283526020830191909152429082015260600160405180910390a27f000000000000000000000000000000000000000000000000000000000000000061ffff16600354111561098057600180546002919060ff191681835b02179055506040514281527f7bd139738245a137c3a1097cc5b6e4ab191bc684746c29d16ae43280bda83c539060200160405180910390a15b50505061098d6001600055565b565b6008818154811061099f57600080fd5b600091825260209091200154905081565b6001600160a01b0381166000908152600660205260408120546109d557506000919050565b6001600160a01b0382166000908152600660205260408120546005906109fd90600190612761565b81548110610a0d57610a0d612774565b60009182526020918290206040805160c081018252600590930290910180546001600160a01b038116845260ff600160a01b90910481161515948401949094526001810154918301919091526002810154909216158015606083018190526003840154608084015260049093015460a0830152909250610a8e575080602001515b8015610a9f57506003548160400151115b9392505050565b336001600160a01b037f00000000000000000000000000000000000000000000000000000000000000001614610aee5760405162461bcd60e51b81526004016105bb9061281d565b6001805460ff166002811115610b0657610b06612694565b14610b235760405162461bcd60e51b81526004016105bb9061271e565b6001600160a01b038116600090815260066020526040812054610b4890600190612761565b6005549091508110610b925760405162461bcd60e51b8152602060048201526013602482015272125b9d985b1a59081c185c9d1a58da5c185b9d606a1b60448201526064016105bb565b600060058281548110610ba757610ba7612774565b60009182526020909120600590910201600281015490915060ff16610bde5760405162461bcd60e51b81526004016105bb9061284c565b8054600160a01b900460ff16158015610bfd5750600354816001015411155b610c495760405162461bcd60e51b815260206004820152601a60248201527f5061727469636970616e74206e6f7420696e2064656661756c7400000000000060448201526064016105bb565b600354604080519182524260208301526001600160a01b038516917f48f5b31689373177c3a194793297ff1acf95fcc7ea01b17f45109945d754958891015b60405180910390a2505050565b60606005805480602002602001604051908101604052809291908181526020016000905b82821015610d375760008481526020908190206040805160c0810182526005860290920180546001600160a01b038116845260ff600160a01b90910481161515848601526001808301549385019390935260028201541615156060840152600381015460808401526004015460a08301529083529092019101610cb9565b50505050905090565b60058181548110610d5057600080fd5b6000918252602090912060059091020180546001820154600283015460038401546004909401546001600160a01b0384169550600160a01b90930460ff9081169492939116919086565b60075460609060ff16610dbf5760405162461bcd60e51b81526004016105bb906127b4565b6008805480602002602001604051908101604052809291908181526020018280548015610e0b57602002820191906000526020600020905b815481526020019060010190808311610df7575b5050505050905090565b600354600754600090819060ff168015610e30575060055415155b15610ee057600560086001600354610e489190612761565b81548110610e5857610e58612774565b906000526020600020015481548110610e7357610e73612774565b60009182526020909120600590910201546001600160a01b03169150610edd61ffff7f0000000000000000000000000000000000000000000000000000000000000000167f000000000000000000000000000000000000000000000000000000000000000061278a565b90505b909192565b33600090815260066020526040902054610f415760405162461bcd60e51b815260206004820152601960248201527f43616c6c6572206973206e6f74207061727469636970616e740000000000000060448201526064016105bb565b6001805460ff166002811115610f5957610f59612694565b14610f765760405162461bcd60e51b81526004016105bb9061271e565b60008111610fc65760405162461bcd60e51b815260206004820152601d60248201527f4d7573742070617920666f72206174206c656173742031206379636c6500000060448201526064016105bb565b33600090815260066020526040812054610fe290600190612761565b9050600060058281548110610ff957610ff9612774565b60009182526020909120600590910201600281015490915060ff166110305760405162461bcd60e51b81526004016105bb9061284c565b600081600101547f000000000000000000000000000000000000000000000000000000000000000061ffff166110669190612761565b9050808411156110b85760405162461bcd60e51b815260206004820152601e60248201527f43616e6e6f7420706179206265796f6e6420746f74616c206379636c6573000060448201526064016105bb565b60006110e4857f000000000000000000000000000000000000000000000000000000000000000061278a565b905061111b6001600160a01b037f000000000000000000000000000000000000000000000000000000000000000016333084612371565b8483600101600082825461112f91906127a1565b9091555050825460ff60a01b1916600160a01b1783556004805482919060009061115a9084906127a1565b909155505060408051868152602081018390524281830152905133917f8e4aa0897527f9d5629d6daf3255e753bfdd9862c1b9803c200a8bd12d5b8625919081900360600190a25050505050565b6001805460035460045460ff9092169290917f000000000000000000000000000000000000000000000000000000000000000061ffff16916000908560028111156111f5576111f5612694565b1461120157600061123c565b7f000000000000000000000000000000000000000000000000000000000000000060035461122f919061278a565b60025461123c91906127a1565b90509091929394565b6040805160c08101825260008082526020808301829052828401829052606083018290526080830182905260a083018290526001600160a01b03851682526006905291909120546112d85760405162461bcd60e51b815260206004820152601a60248201527f41646472657373206973206e6f74207061727469636970616e7400000000000060448201526064016105bb565b6001600160a01b03821660009081526006602052604090205460059061130090600190612761565b8154811061131057611310612774565b60009182526020918290206040805160c081018252600590930290910180546001600160a01b038116845260ff600160a01b90910481161515948401949094526001810154918301919091526002810154909216151560608201526003820154608082015260049091015460a082015292915050565b336001600160a01b037f000000000000000000000000000000000000000000000000000000000000000016146113ce5760405162461bcd60e51b81526004016105bb9061281d565b6001805460ff1660028111156113e6576113e6612694565b146114035760405162461bcd60e51b81526004016105bb9061271e565b6001600160a01b03811660009081526006602052604081205461142890600190612761565b60055490915081106114725760405162461bcd60e51b8152602060048201526013602482015272125b9d985b1a59081c185c9d1a58da5c185b9d606a1b60448201526064016105bb565b60006005828154811061148757611487612774565b60009182526020909120600590910201600281015490915060ff166114be5760405162461bcd60e51b81526004016105bb9061284c565b8054600160a01b900460ff161580156114dd5750600354816001015411155b6115295760405162461bcd60e51b815260206004820152601a60248201527f5061727469636970616e74206e6f7420696e2064656661756c7400000000000060448201526064016105bb565b60028101805460ff19169055600354604080519182524260208301526001600160a01b038516917f7e4798a8032598c7051889ed361360d7a9014ad9a23db8378c2984bbc5cc4f0a9101610c88565b336001600160a01b037f000000000000000000000000000000000000000000000000000000000000000016146115c05760405162461bcd60e51b81526004016105bb9061281d565b600260015460ff1660028111156115d9576115d9612694565b1461161f5760405162461bcd60e51b815260206004820152601660248201527515185b9918481a5cc81b9bdd0818dbdb5c1b195d195960521b60448201526064016105bb565b6001805460ff1990811690915560006002819055600381905560048190556007805490921690915561165390600890612507565b60005b60055481101561173f5760006005828154811061167557611675612774565b906000526020600020906005020160000160146101000a81548160ff0219169083151502179055506000600582815481106116b2576116b2612774565b9060005260206000209060050201600101819055506001600582815481106116dc576116dc612774565b906000526020600020906005020160020160006101000a81548160ff02191690831515021790555060006005828154811061171957611719612774565b60009182526020909120600360059092020101558061173781612804565b915050611656565b506040514281527fd3ebc31f8a361237f62eadb2eebe3af4a3ec578b0ccb724fe48f76c607f3000d9060200160405180910390a1565b600060015460ff16600281111561178e5761178e612694565b146117cf5760405162461bcd60e51b81526020600482015260116024820152702a30b732309034b9903737ba1037b832b760791b60448201526064016105bb565b60055461ffff7f000000000000000000000000000000000000000000000000000000000000000016116118345760405162461bcd60e51b815260206004820152600d60248201526c15185b9918481a5cc8199d5b1b609a1b60448201526064016105bb565b33600090815260066020526040902054156118915760405162461bcd60e51b815260206004820152601960248201527f416c7265616479206a6f696e656420746869732074616e64610000000000000060448201526064016105bb565b6118e66001600160a01b037f00000000000000000000000000000000000000000000000000000000000000001633307f0000000000000000000000000000000000000000000000000000000000000000612371565b6040805160c0810182523380825260016020808401828152848601838152606086018481526000608088018181524260a08a019081526005805498890181558084529951978a027f036b6384b5eca791c62761152d0c79bb0604c104a5fb6f4eb0703f3154bb3db08101805497511515600160a01b026001600160a81b03199098166001600160a01b039a909a16999099179690961790975592517f036b6384b5eca791c62761152d0c79bb0604c104a5fb6f4eb0703f3154bb3db185015590517f036b6384b5eca791c62761152d0c79bb0604c104a5fb6f4eb0703f3154bb3db28401805491151560ff1990921691909117905590517f036b6384b5eca791c62761152d0c79bb0604c104a5fb6f4eb0703f3154bb3db383015592517f036b6384b5eca791c62761152d0c79bb0604c104a5fb6f4eb0703f3154bb3db4909101559254918152600690925291812091909155600480547f00000000000000000000000000000000000000000000000000000000000000009290611a6b9084906127a1565b909155505060405142815233907f8123641a38ad3476ac345fc38496fa9edc26a110698c8c0c9fffc30f546f918c9060200160405180910390a260055461ffff7f000000000000000000000000000000000000000000000000000000000000000016900361098d5761098d6123b0565b611ae361224d565b6001805460ff166002811115611afb57611afb612694565b14611b185760405162461bcd60e51b81526004016105bb9061271e565b6000600560086001600354611b2d9190612761565b81548110611b3d57611b3d612774565b906000526020600020015481548110611b5857611b58612774565b600091825260208220600590910201546003546001600160a01b039091169250611ba3907f00000000000000000000000000000000000000000000000000000000000000009061278a565b600254611bb091906127a1565b9050611bba612277565b611c065760405162461bcd60e51b815260206004820152601e60248201527f4e6f7420616c6c207061727469636970616e747320686176652070616964000060448201526064016105bb565b60075460ff16611c285760405162461bcd60e51b81526004016105bb906127b4565b6000611c7861ffff7f0000000000000000000000000000000000000000000000000000000000000000167f000000000000000000000000000000000000000000000000000000000000000061278a565b6040516370a0823160e01b815230600482015290915081906001600160a01b037f000000000000000000000000000000000000000000000000000000000000000016906370a0823190602401602060405180830381865afa158015611ce1573d6000803e3d6000fd5b505050506040513d601f19601f82011682018060405250810190611d0591906127eb565b1015611d535760405162461bcd60e51b815260206004820152601d60248201527f496e73756666696369656e7420636f6e74726163742062616c616e636500000060448201526064016105bb565b60038054906000611d6383612804565b91905055508060046000828254611d7a9190612761565b90915550611db490506001600160a01b037f000000000000000000000000000000000000000000000000000000000000000016848361230d565b826001600160a01b03167f1d2b6cb5f88d674645ff36bd6e4ea583bc3bea7dbb817b193201b90dc9eb4774826001600354611def9190612761565b604080519283526020830191909152429082015260600160405180910390a27f000000000000000000000000000000000000000000000000000000000000000061ffff166003541061098057600180546002919060ff19168183610947565b336001600160a01b037f00000000000000000000000000000000000000000000000000000000000000001614611ebe5760405162461bcd60e51b815260206004820152601560248201527421b0b63632b91034b9903737ba1036b0b730b3b2b960591b60448201526064016105bb565b60075460ff1615611f115760405162461bcd60e51b815260206004820152601d60248201527f5061796f7574206f7264657220616c72656164792061737369676e656400000060448201526064016105bb565b60055461ffff7f00000000000000000000000000000000000000000000000000000000000000001614611f865760405162461bcd60e51b815260206004820152601b60248201527f4e6f7420616c6c207061727469636970616e7473206a6f696e6564000000000060448201526064016105bb565b7f000000000000000000000000000000000000000000000000000000000000000061ffff1667ffffffffffffffff811115611fc357611fc3612883565b604051908082528060200260200182016040528015611fec578160200160208202803683370190505b50805161200191600891602090910190612528565b5060005b7f000000000000000000000000000000000000000000000000000000000000000061ffff1681101561206357806008828154811061204557612045612774565b6000918252602090912001558061205b81612804565b915050612005565b50600061209160017f0000000000000000000000000000000000000000000000000000000000000000612899565b61ffff1690505b801561217a5760006120ab8260016127a1565b60408051602081018690529081018490526060016040516020818303038152906040528051906020012060001c6120e291906128bb565b9050600881815481106120f7576120f7612774565b90600052602060002001546008838154811061211557612115612774565b90600052602060002001546008848154811061213357612133612774565b9060005260206000200160006008858154811061215257612152612774565b6000918252602090912001929092559190915550819050612172816128dd565b915050612098565b5060005b7f000000000000000000000000000000000000000000000000000000000000000061ffff1681101561220157806005600883815481106121c0576121c0612774565b9060005260206000200154815481106121db576121db612774565b6000918252602090912060036005909202010155806121f981612804565b91505061217e565b506007805460ff191660011790556040517f971012af51546161130452a244c133ec24b1cde244ef6ac75b42efc886a43ada906122429060089042906128f4565b60405180910390a150565b60026000540361227057604051633ee5aeb560e01b815260040160405180910390fd5b6002600055565b6000805b600554811015612305576005818154811061229857612298612774565b600091825260209091206002600590920201015460ff1680156122e65750600581815481106122c9576122c9612774565b6000918252602090912060059091020154600160a01b900460ff16155b156122f357600091505090565b806122fd81612804565b91505061227b565b506001905090565b6040516001600160a01b0383811660248301526044820183905261236c91859182169063a9059cbb906064015b604051602081830303815290604052915060e01b6020820180516001600160e01b038381831617835250505050612496565b505050565b6040516001600160a01b0384811660248301528381166044830152606482018390526123aa9186918216906323b872dd9060840161233a565b50505050565b6001805460ff19168117815542600281905560038290556040805191825260208201929092527faed8f846008894a9b50aafe48b33af7084702a26f52921bbf1f5aa5dfbb09aa4910160405180910390a16040516373f3357160e11b81527f000000000000000000000000000000000000000000000000000000000000000060048201527f00000000000000000000000000000000000000000000000000000000000000006001600160a01b03169063e7e66ae290602401600060405180830381600087803b15801561248257600080fd5b505af11580156123aa573d6000803e3d6000fd5b600080602060008451602086016000885af1806124b9576040513d6000823e3d81fd5b50506000513d915081156124d15780600114156124de565b6001600160a01b0384163b155b156123aa57604051635274afe760e01b81526001600160a01b03851660048201526024016105bb565b50805460008255906000526020600020908101906125259190612573565b50565b828054828255906000526020600020908101928215612563579160200282015b82811115612563578251825591602001919060010190612548565b5061256f929150612573565b5090565b5b8082111561256f5760008155600101612574565b60006020828403121561259a57600080fd5b81356001600160a01b0381168114610a9f57600080fd5b6000602082840312156125c357600080fd5b5035919050565b80516001600160a01b03168252602080820151151590830152604080820151908301526060808201511515908301526080808201519083015260a090810151910152565b6020808252825182820181905260009190848201906040850190845b818110156126505761263d8385516125ca565b9284019260c0929092019160010161262a565b50909695505050505050565b6020808252825182820181905260009190848201906040850190845b8181101561265057835183529284019291840191600101612678565b634e487b7160e01b600052602160045260246000fd5b600381106126c857634e487b7160e01b600052602160045260246000fd5b9052565b60a081016126da82886126aa565b8560208301528460408301528360608301528260808301529695505050505050565b60c0810161270a82846125ca565b92915050565b6020810161270a82846126aa565b60208082526013908201527254616e6461206973206e6f742061637469766560681b604082015260600190565b634e487b7160e01b600052601160045260246000fd5b8181038181111561270a5761270a61274b565b634e487b7160e01b600052603260045260246000fd5b808202811582820484141761270a5761270a61274b565b8082018082111561270a5761270a61274b565b60208082526019908201527f5061796f7574206f72646572206e6f742061737369676e656400000000000000604082015260600190565b6000602082840312156127fd57600080fd5b5051919050565b6000600182016128165761281661274b565b5060010190565b60208082526015908201527421b0b63632b91034b9903737ba1031b932b0ba37b960591b604082015260600190565b60208082526017908201527f5061727469636970616e7420697320696e616374697665000000000000000000604082015260600190565b634e487b7160e01b600052604160045260246000fd5b61ffff8281168282160390808211156128b4576128b461274b565b5092915050565b6000826128d857634e487b7160e01b600052601260045260246000fd5b500690565b6000816128ec576128ec61274b565b506000190190565b6000604082016040835280855480835260608501915086600052602092508260002060005b8281101561293557815484529284019260019182019101612919565b5050509201929092529291505056fea264697066735822122019df8a5a2213ca0725fc21c85910cdd735ea013d046ea964cc648af51300b5d264736f6c63430008140033a264697066735822122082ba27e7f3217be59364c2db3f0e857ae74e8e35024630e00bc47aa41ffa608364736f6c63430008140033",
  "devdoc": {
    "kind": "dev",
    "methods": {
      "createTanda(uint256,uint256,uint16,uint256)": {
        "params": {
          "_contributionAmount": "USDC amount each participant must contribute",
          "_gracePeriod": "Grace period for late payments in seconds",
          "_participantCount": "Number of participants needed",
          "_payoutInterval": "Time between payouts in seconds"
        },
        "returns": {
          "_0": "tandaId ID of the newly created Tanda"
        }
      },
      "getActiveTandaIds()": {
        "returns": {
          "_0": "Array of active Tanda IDs"
        }
      },
      "getTandaAddress(uint256)": {
        "params": {
          "tandaId": "ID of the Tanda"
        },
        "returns": {
          "_0": "Tanda contract address"
        }
      },
      "getTandaData(uint256)": {
        "params": {
          "tandaId": "ID of the Tanda"
        },
        "returns": {
          "currentStatus": "Struct containing current status information",
          "generalInfo": "Struct containing general Tanda information",
          "payoutOrderInfo": "Array of payout order (if assigned)"
        }
      },
      "getUsdcAddress()": {
        "returns": {
          "_0": "USDC contract address"
        }
      },
      "getVRFConfig()": {
        "returns": {
          "_0": "Current subscription ID",
          "_1": "Current gas lane",
          "_2": "Current callback gas limit",
          "_3": "Current request confirmations",
          "_4": "Current number of words",
          "_5": "Current native payment setting"
        }
      },
      "isTandaActive(uint256)": {
        "params": {
          "tandaId": "ID of the Tanda to check"
        },
        "returns": {
          "_0": "True if active, false otherwise"
        }
      },
      "requestRandomnessForTanda(uint256)": {
        "details": "Only callable by Tanda contracts",
        "params": {
          "tandaId": "ID of the Tanda requesting randomness"
        }
      },
      "updateVRFConfig(uint256,bytes32,uint32,uint16,uint32,bool)": {
        "params": {
          "_callbackGasLimit": "New callback gas limit",
          "_gasLane": "New gas lane key hash",
          "_nativePayment": "Whether to pay for VRF in native token or LINK",
          "_numWords": "New number of random words to request",
          "_requestConfirmations": "New number of request confirmations",
          "_subscriptionId": "New subscription ID"
        }
      }
    },
    "version": 1
  },
  "userdoc": {
    "kind": "user",
    "methods": {
      "acceptOwnership()": {
        "notice": "Allows an ownership transfer to be completed by the recipient."
      },
      "createTanda(uint256,uint256,uint16,uint256)": {
        "notice": "Create a new Tanda"
      },
      "getActiveTandaIds()": {
        "notice": "Get all active Tanda IDs"
      },
      "getTandaAddress(uint256)": {
        "notice": "Get Tanda contract address by ID"
      },
      "getTandaData(uint256)": {
        "notice": "Get comprehensive Tanda data for frontend display"
      },
      "getUsdcAddress()": {
        "notice": "Get USDC token address"
      },
      "getVRFConfig()": {
        "notice": "Get current VRF configuration"
      },
      "isTandaActive(uint256)": {
        "notice": "Check if Tanda is active"
      },
      "owner()": {
        "notice": "Get the current owner"
      },
      "requestRandomnessForTanda(uint256)": {
        "notice": "Request randomness for payout order assignment"
      },
      "requestRandomnessForTandaTest(uint256)": {
        "notice": "Request randomness for payout order assignment (test function)"
      },
      "setCoordinator(address)": {
        "notice": "Sets the VRF Coordinator addressThis method should only be callable by the coordinator or contract owner"
      },
      "transferOwnership(address)": {
        "notice": "Allows an owner to begin transferring ownership to a new address."
      },
      "updateVRFConfig(uint256,bytes32,uint32,uint16,uint32,bool)": {
        "notice": "Update VRF configuration parameters"
      }
    },
    "version": 1
  },
  "storageLayout": {
    "storage": [
      {
        "astId": 29,
        "contract": "contracts/TandaManager.sol:TandaManager",
        "label": "s_owner",
        "offset": 0,
        "slot": "0",
        "type": "t_address"
      },
      {
        "astId": 31,
        "contract": "contracts/TandaManager.sol:TandaManager",
        "label": "s_pendingOwner",
        "offset": 0,
        "slot": "1",
        "type": "t_address"
      },
      {
        "astId": 231,
        "contract": "contracts/TandaManager.sol:TandaManager",
        "label": "s_vrfCoordinator",
        "offset": 0,
        "slot": "2",
        "type": "t_contract(IVRFCoordinatorV2Plus)380"
      },
      {
        "astId": 2597,
        "contract": "contracts/TandaManager.sol:TandaManager",
        "label": "subscriptionId",
        "offset": 0,
        "slot": "3",
        "type": "t_uint256"
      },
      {
        "astId": 2599,
        "contract": "contracts/TandaManager.sol:TandaManager",
        "label": "gasLane",
        "offset": 0,
        "slot": "4",
        "type": "t_bytes32"
      },
      {
        "astId": 2601,
        "contract": "contracts/TandaManager.sol:TandaManager",
        "label": "callbackGasLimit",
        "offset": 0,
        "slot": "5",
        "type": "t_uint32"
      },
      {
        "astId": 2604,
        "contract": "contracts/TandaManager.sol:TandaManager",
        "label": "requestConfirmations",
        "offset": 4,
        "slot": "5",
        "type": "t_uint16"
      },
      {
        "astId": 2607,
        "contract": "contracts/TandaManager.sol:TandaManager",
        "label": "numWords",
        "offset": 6,
        "slot": "5",
        "type": "t_uint32"
      },
      {
        "astId": 2610,
        "contract": "contracts/TandaManager.sol:TandaManager",
        "label": "nativePayment",
        "offset": 10,
        "slot": "5",
        "type": "t_bool"
      },
      {
        "astId": 2614,
        "contract": "contracts/TandaManager.sol:TandaManager",
        "label": "nextTandaId",
        "offset": 0,
        "slot": "6",
        "type": "t_uint256"
      },
      {
        "astId": 2618,
        "contract": "contracts/TandaManager.sol:TandaManager",
        "label": "tandaIdToAddress",
        "offset": 0,
        "slot": "7",
        "type": "t_mapping(t_uint256,t_address)"
      },
      {
        "astId": 2622,
        "contract": "contracts/TandaManager.sol:TandaManager",
        "label": "vrfRequestIdToTandaId",
        "offset": 0,
        "slot": "8",
        "type": "t_mapping(t_uint256,t_uint256)"
      },
      {
        "astId": 2626,
        "contract": "contracts/TandaManager.sol:TandaManager",
        "label": "activeTandas",
        "offset": 0,
        "slot": "9",
        "type": "t_mapping(t_uint256,t_bool)"
      }
    ],
    "types": {
      "t_address": {
        "encoding": "inplace",
        "label": "address",
        "numberOfBytes": "20"
      },
      "t_bool": {
        "encoding": "inplace",
        "label": "bool",
        "numberOfBytes": "1"
      },
      "t_bytes32": {
        "encoding": "inplace",
        "label": "bytes32",
        "numberOfBytes": "32"
      },
      "t_contract(IVRFCoordinatorV2Plus)380": {
        "encoding": "inplace",
        "label": "contract IVRFCoordinatorV2Plus",
        "numberOfBytes": "20"
      },
      "t_mapping(t_uint256,t_address)": {
        "encoding": "mapping",
        "key": "t_uint256",
        "label": "mapping(uint256 => address)",
        "numberOfBytes": "32",
        "value": "t_address"
      },
      "t_mapping(t_uint256,t_bool)": {
        "encoding": "mapping",
        "key": "t_uint256",
        "label": "mapping(uint256 => bool)",
        "numberOfBytes": "32",
        "value": "t_bool"
      },
      "t_mapping(t_uint256,t_uint256)": {
        "encoding": "mapping",
        "key": "t_uint256",
        "label": "mapping(uint256 => uint256)",
        "numberOfBytes": "32",
        "value": "t_uint256"
      },
      "t_uint16": {
        "encoding": "inplace",
        "label": "uint16",
        "numberOfBytes": "2"
      },
      "t_uint256": {
        "encoding": "inplace",
        "label": "uint256",
        "numberOfBytes": "32"
      },
      "t_uint32": {
        "encoding": "inplace",
        "label": "uint32",
        "numberOfBytes": "4"
      }
    }
  }
}