{
  "address": "0xCA12Bf8D1f8Cc92b35a1D063adc9d4B3976BCe2D",
  "abi": [
    {
      "inputs": [
        {
          "internalType": "address",
          "name": "_vrfCoordinator",
          "type": "address"
        },
        {
          "internalType": "uint256",
          "name": "_subscriptionId",
          "type": "uint256"
        },
        {
          "internalType": "bytes32",
          "name": "_gasLane",
          "type": "bytes32"
        },
        {
          "internalType": "uint32",
          "name": "_callbackGasLimit",
          "type": "uint32"
        },
        {
          "internalType": "address",
          "name": "_usdcAddress",
          "type": "address"
        }
      ],
      "stateMutability": "nonpayable",
      "type": "constructor"
    },
    {
      "inputs": [
        {
          "internalType": "address",
          "name": "have",
          "type": "address"
        },
        {
          "internalType": "address",
          "name": "want",
          "type": "address"
        }
      ],
      "name": "OnlyCoordinatorCanFulfill",
      "type": "error"
    },
    {
      "anonymous": false,
      "inputs": [
        {
          "indexed": true,
          "internalType": "uint256",
          "name": "tandaId",
          "type": "uint256"
        }
      ],
      "name": "PayoutOrderAssigned",
      "type": "event"
    },
    {
      "anonymous": false,
      "inputs": [
        {
          "indexed": true,
          "internalType": "uint256",
          "name": "tandaId",
          "type": "uint256"
        },
        {
          "indexed": true,
          "internalType": "uint256",
          "name": "requestId",
          "type": "uint256"
        }
      ],
      "name": "RandomnessRequested",
      "type": "event"
    },
    {
      "anonymous": false,
      "inputs": [
        {
          "indexed": true,
          "internalType": "uint256",
          "name": "tandaId",
          "type": "uint256"
        },
        {
          "indexed": true,
          "internalType": "address",
          "name": "tandaAddress",
          "type": "address"
        },
        {
          "indexed": false,
          "internalType": "uint256",
          "name": "contributionAmount",
          "type": "uint256"
        },
        {
          "indexed": false,
          "internalType": "uint256",
          "name": "payoutInterval",
          "type": "uint256"
        },
        {
          "indexed": false,
          "internalType": "uint16",
          "name": "participantCount",
          "type": "uint16"
        },
        {
          "indexed": false,
          "internalType": "uint256",
          "name": "gracePeriod",
          "type": "uint256"
        },
        {
          "indexed": false,
          "internalType": "address",
          "name": "creator",
          "type": "address"
        }
      ],
      "name": "TandaCreated",
      "type": "event"
    },
    {
      "inputs": [
        {
          "internalType": "uint256",
          "name": "",
          "type": "uint256"
        }
      ],
      "name": "activeTandas",
      "outputs": [
        {
          "internalType": "bool",
          "name": "",
          "type": "bool"
        }
      ],
      "stateMutability": "view",
      "type": "function"
    },
    {
      "inputs": [
        {
          "internalType": "uint256",
          "name": "_contributionAmount",
          "type": "uint256"
        },
        {
          "internalType": "uint256",
          "name": "_payoutInterval",
          "type": "uint256"
        },
        {
          "internalType": "uint16",
          "name": "_participantCount",
          "type": "uint16"
        },
        {
          "internalType": "uint256",
          "name": "_gracePeriod",
          "type": "uint256"
        }
      ],
      "name": "createTanda",
      "outputs": [
        {
          "internalType": "uint256",
          "name": "",
          "type": "uint256"
        }
      ],
      "stateMutability": "nonpayable",
      "type": "function"
    },
    {
      "inputs": [],
      "name": "getActiveTandaIds",
      "outputs": [
        {
          "internalType": "uint256[]",
          "name": "",
          "type": "uint256[]"
        }
      ],
      "stateMutability": "view",
      "type": "function"
    },
    {
      "inputs": [
        {
          "internalType": "uint256",
          "name": "tandaId",
          "type": "uint256"
        }
      ],
      "name": "getTandaAddress",
      "outputs": [
        {
          "internalType": "address",
          "name": "",
          "type": "address"
        }
      ],
      "stateMutability": "view",
      "type": "function"
    },
    {
      "inputs": [
        {
          "internalType": "uint256",
          "name": "tandaId",
          "type": "uint256"
        }
      ],
      "name": "getTandaParameters",
      "outputs": [
        {
          "internalType": "uint256",
          "name": "contributionAmount",
          "type": "uint256"
        },
        {
          "internalType": "uint256",
          "name": "payoutInterval",
          "type": "uint256"
        },
        {
          "internalType": "uint16",
          "name": "participantCount",
          "type": "uint16"
        },
        {
          "internalType": "uint256",
          "name": "gracePeriod",
          "type": "uint256"
        }
      ],
      "stateMutability": "view",
      "type": "function"
    },
    {
      "inputs": [],
      "name": "getUsdcAddress",
      "outputs": [
        {
          "internalType": "address",
          "name": "",
          "type": "address"
        }
      ],
      "stateMutability": "view",
      "type": "function"
    },
    {
      "inputs": [
        {
          "internalType": "uint256",
          "name": "tandaId",
          "type": "uint256"
        }
      ],
      "name": "isTandaActive",
      "outputs": [
        {
          "internalType": "bool",
          "name": "",
          "type": "bool"
        }
      ],
      "stateMutability": "view",
      "type": "function"
    },
    {
      "inputs": [],
      "name": "nextTandaId",
      "outputs": [
        {
          "internalType": "uint256",
          "name": "",
          "type": "uint256"
        }
      ],
      "stateMutability": "view",
      "type": "function"
    },
    {
      "inputs": [
        {
          "internalType": "uint256",
          "name": "requestId",
          "type": "uint256"
        },
        {
          "internalType": "uint256[]",
          "name": "randomWords",
          "type": "uint256[]"
        }
      ],
      "name": "rawFulfillRandomWords",
      "outputs": [],
      "stateMutability": "nonpayable",
      "type": "function"
    },
    {
      "inputs": [
        {
          "internalType": "uint256",
          "name": "tandaId",
          "type": "uint256"
        }
      ],
      "name": "requestRandomnessForTanda",
      "outputs": [],
      "stateMutability": "nonpayable",
      "type": "function"
    },
    {
      "inputs": [
        {
          "internalType": "uint256",
          "name": "",
          "type": "uint256"
        }
      ],
      "name": "tandaIdToAddress",
      "outputs": [
        {
          "internalType": "address",
          "name": "",
          "type": "address"
        }
      ],
      "stateMutability": "view",
      "type": "function"
    },
    {
      "inputs": [],
      "name": "usdcAddress",
      "outputs": [
        {
          "internalType": "address",
          "name": "",
          "type": "address"
        }
      ],
      "stateMutability": "view",
      "type": "function"
    },
    {
      "inputs": [
        {
          "internalType": "uint256",
          "name": "",
          "type": "uint256"
        }
      ],
      "name": "vrfRequestIdToTandaId",
      "outputs": [
        {
          "internalType": "uint256",
          "name": "",
          "type": "uint256"
        }
      ],
      "stateMutability": "view",
      "type": "function"
    }
  ],
  "transactionHash": "0xd87f37d5210b9b1579613da88664dc69ab1cdfaa80038371258236ebc68cd8d8",
  "args": [
    "0x5C210eF41CD1a72de73bF76eC39637bB0d3d7BEE",
    "17652650031881938556899546254523775603114927968482728430038901064991564696628",
    "0x9e1344a1247c8a1785d0a4681a27152bffdb43666ae5bf7d14d24a5efd44bf71",
    "2500000",
    "0x448951fF62790226fB2adC5f34C5Fe9AF2Eecdf9"
  ],
  "numDeployments": 1,
  "solcInputHash": "1d619fe5138ce0879b9041ddd383be2e",
  "bytecode": "0x61014060405234801561001157600080fd5b50604051620037173803806200371783398101604081905261003291610132565b6001600160a01b03851660808190526100925760405162461bcd60e51b815260206004820152601760248201527f496e76616c69642056524620636f6f7264696e61746f7200000000000000000060448201526064015b60405180910390fd5b6001600160a01b0381166100e85760405162461bcd60e51b815260206004820152601460248201527f496e76616c6964205553444320616464726573730000000000000000000000006044820152606401610089565b6001600160a01b0394851660a05260c09390935260e09190915263ffffffff16610100521661012052610194565b80516001600160a01b038116811461012d57600080fd5b919050565b600080600080600060a0868803121561014a57600080fd5b61015386610116565b94506020860151935060408601519250606086015163ffffffff8116811461017a57600080fd5b915061018860808701610116565b90509295509295909350565b60805160a05160c05160e0516101005161012051613526620001f16000396000818160eb01526102a801526000610b1301526000610abb01526000610ae101526000610b440152600081816102ef015261033201526135266000f3fe60806040523480156200001157600080fd5b5060043610620000e05760003560e01c80636fa64ffd11620000975780639bb0c0b9116200006e5780639bb0c0b91462000261578063c1a28341146200027a578063dbe0b5b214620002a6578063e7e66ae214620002cd57600080fd5b80636fa64ffd146200021a5780638ce8fb57146200023157806397b509be146200023b57600080fd5b806302d4545714620000e55780631fe543e3146200012a578063235f1e14146200014357806336d1ee12146200017557806338dd814114620001ac5780636a1ea73414620001ee575b600080fd5b6200010d7f000000000000000000000000000000000000000000000000000000000000000081565b6040516001600160a01b0390911681526020015b60405180910390f35b620001416200013b36600462000d4b565b620002e4565b005b620001666200015436600462000e21565b60026020526000908152604090205481565b60405190815260200162000121565b6200019b6200018636600462000e21565b60009081526003602052604090205460ff1690565b604051901515815260200162000121565b620001c3620001bd36600462000e21565b62000374565b604051620001219493929190938452602084019290925261ffff166040830152606082015260800190565b6200010d620001ff36600462000e21565b6000908152600160205260409020546001600160a01b031690565b620001666200022b36600462000e4f565b6200057e565b6200016660005481565b6200019b6200024c36600462000e21565b60036020526000908152604090205460ff1681565b6200026b620008e8565b60405162000121919062000e91565b6200010d6200028b36600462000e21565b6001602052600090815260409020546001600160a01b031681565b7f00000000000000000000000000000000000000000000000000000000000000006200010d565b62000141620002de36600462000e21565b620009f8565b336001600160a01b037f00000000000000000000000000000000000000000000000000000000000000001614620003645760405163073e64fd60e21b81523360048201526001600160a01b037f00000000000000000000000000000000000000000000000000000000000000001660248201526044015b60405180910390fd5b62000370828262000bfd565b5050565b6000818152600160205260408120548190819081906001600160a01b031680620003d45760405162461bcd60e51b815260206004820152601060248201526f125b9d985b1a590815185b991848125160821b60448201526064016200035b565b6000819050806001600160a01b0316635fa0b65f6040518163ffffffff1660e01b8152600401602060405180830381865afa15801562000418573d6000803e3d6000fd5b505050506040513d601f19601f820116820180604052508101906200043e919062000ed7565b816001600160a01b03166309e785e16040518163ffffffff1660e01b8152600401602060405180830381865afa1580156200047d573d6000803e3d6000fd5b505050506040513d601f19601f82011682018060405250810190620004a3919062000ed7565b826001600160a01b031663362f04c06040518163ffffffff1660e01b8152600401602060405180830381865afa158015620004e2573d6000803e3d6000fd5b505050506040513d601f19601f8201168201806040525081019062000508919062000ef1565b836001600160a01b031663a06db7dc6040518163ffffffff1660e01b8152600401602060405180830381865afa15801562000547573d6000803e3d6000fd5b505050506040513d601f19601f820116820180604052508101906200056d919062000ed7565b955095509550955050509193509193565b600062989680851015620005d55760405162461bcd60e51b815260206004820152601c60248201527f4d696e696d756d20636f6e747269627574696f6e20313020555344430000000060448201526064016200035b565b62015180841015620006235760405162461bcd60e51b81526020600482015260166024820152754d696e696d756d20696e74657276616c20312064617960501b60448201526064016200035b565b62278d00841115620006785760405162461bcd60e51b815260206004820152601860248201527f4d6178696d756d20696e74657276616c2033302064617973000000000000000060448201526064016200035b565b60028361ffff161015620006c85760405162461bcd60e51b81526020600482015260166024820152754d696e696d756d2032207061727469636970616e747360501b60448201526064016200035b565b60328361ffff1611156200071f5760405162461bcd60e51b815260206004820152601760248201527f4d6178696d756d203530207061727469636970616e747300000000000000000060448201526064016200035b565b62015180821015620007745760405162461bcd60e51b815260206004820152601a60248201527f4d696e696d756d20677261636520706572696f6420312064617900000000000060448201526064016200035b565b62093a80821115620007c95760405162461bcd60e51b815260206004820152601b60248201527f4d6178696d756d20677261636520706572696f6420372064617973000000000060448201526064016200035b565b600080548180620007da8362000f18565b9190505590506000818787878730604051620007f69062000d27565b9586526020860194909452604085019290925261ffff16606084015260808301526001600160a01b031660a082015260c001604051809103906000f08015801562000845573d6000803e3d6000fd5b50600083815260016020818152604080842080546001600160a01b0319166001600160a01b0387169081179091556003835293819020805460ff191690931790925581518b81529081018a905261ffff891691810191909152606081018790523360808201529192509083907f2940fca0fb20f9c88f11423e7bc9b5ad283a937caed7568cb40ab1b736a89e459060a00160405180910390a35095945050505050565b60606000805b600054811015620009365760008181526003602052604090205460ff16156200092157816200091d8162000f18565b9250505b806200092d8162000f18565b915050620008ee565b5060008167ffffffffffffffff81111562000955576200095562000d35565b6040519080825280602002602001820160405280156200097f578160200160208202803683370190505b5090506000805b600054811015620009ef5760008181526003602052604090205460ff1615620009da5780838381518110620009bf57620009bf62000f40565b602090810291909101015281620009d68162000f18565b9250505b80620009e68162000f18565b91505062000986565b50909392505050565b6000818152600160205260409020546001600160a01b0316331462000a565760405162461bcd60e51b815260206004820152601360248201527243616c6c6572206973206e6f742054616e646160681b60448201526064016200035b565b60008181526003602052604090205460ff1662000aac5760405162461bcd60e51b815260206004820152601360248201527254616e6461206973206e6f742061637469766560681b60448201526064016200035b565b60405163d33d44c160e01b81527f000000000000000000000000000000000000000000000000000000000000000060048201527f000000000000000000000000000000000000000000000000000000000000000060248201526003604482015263ffffffff7f0000000000000000000000000000000000000000000000000000000000000000166064820152600160848201526000907f00000000000000000000000000000000000000000000000000000000000000006001600160a01b03169063d33d44c19060a4016020604051808303816000875af115801562000b96573d6000803e3d6000fd5b505050506040513d601f19601f8201168201806040525081019062000bbc919062000ed7565b60008181526002602052604080822085905551919250829184917f3d94fecedaa4f90b8bd459797adb95f5bb11426025c5541390d9ccc1ad1b60a191a35050565b6000828152600260209081526040808320548084526001909252909120546001600160a01b031662000c655760405162461bcd60e51b815260206004820152601060248201526f125b9d985b1a590815185b991848125160821b60448201526064016200035b565b60008181526001602052604081205483516001600160a01b0390911691829163c84979f391869162000c9b5762000c9b62000f40565b60200260200101516040518263ffffffff1660e01b815260040162000cc291815260200190565b600060405180830381600087803b15801562000cdd57600080fd5b505af115801562000cf2573d6000803e3d6000fd5b50506040518492507f58206d7b6e1a94532dbabfe2fc0e526166ba6025e005b4cb7d2c31248fe4fc9f9150600090a250505050565b61259a8062000f5783390190565b634e487b7160e01b600052604160045260246000fd5b6000806040838503121562000d5f57600080fd5b8235915060208084013567ffffffffffffffff8082111562000d8057600080fd5b818601915086601f83011262000d9557600080fd5b81358181111562000daa5762000daa62000d35565b8060051b604051601f19603f8301168101818110858211171562000dd25762000dd262000d35565b60405291825284820192508381018501918983111562000df157600080fd5b938501935b8285101562000e115784358452938501939285019262000df6565b8096505050505050509250929050565b60006020828403121562000e3457600080fd5b5035919050565b61ffff8116811462000e4c57600080fd5b50565b6000806000806080858703121562000e6657600080fd5b8435935060208501359250604085013562000e818162000e3b565b9396929550929360600135925050565b6020808252825182820181905260009190848201906040850190845b8181101562000ecb5783518352928401929184019160010162000ead565b50909695505050505050565b60006020828403121562000eea57600080fd5b5051919050565b60006020828403121562000f0457600080fd5b815162000f118162000e3b565b9392505050565b60006001820162000f3957634e487b7160e01b600052601160045260246000fd5b5060010190565b634e487b7160e01b600052603260045260246000fdfe6101606040523480156200001257600080fd5b506040516200259a3803806200259a8339810160408190526200003591620002b0565b6001600055846200008d5760405162461bcd60e51b815260206004820152601f60248201527f436f6e747269627574696f6e20616d6f756e74206d757374206265203e20300060448201526064015b60405180910390fd5b60008411620000df5760405162461bcd60e51b815260206004820152601b60248201527f5061796f757420696e74657276616c206d757374206265203e20300000000000604482015260640162000084565b60028361ffff161015620001365760405162461bcd60e51b815260206004820152601f60248201527f4d696e696d756d2032207061727469636970616e747320726571756972656400604482015260640162000084565b60008211620001885760405162461bcd60e51b815260206004820152601860248201527f477261636520706572696f64206d757374206265203e20300000000000000000604482015260640162000084565b6001600160a01b038116620001e05760405162461bcd60e51b815260206004820152601760248201527f496e76616c6964206d616e616765722061646472657373000000000000000000604482015260640162000084565b608086905260a085905260c084905261ffff83166101005260e08290526001600160a01b03811661012081905260408051636df05ad960e11b8152905163dbe0b5b2916004808201926020929091908290030181865afa15801562000249573d6000803e3d6000fd5b505050506040513d601f19601f820116820180604052508101906200026f919062000316565b6001600160a01b03166101405250506001805460ff19169055506200033b92505050565b80516001600160a01b0381168114620002ab57600080fd5b919050565b60008060008060008060c08789031215620002ca57600080fd5b865195506020870151945060408701519350606087015161ffff81168114620002f257600080fd5b608088015190935091506200030a60a0880162000293565b90509295509295509295565b6000602082840312156200032957600080fd5b620003348262000293565b9392505050565b60805160a05160c05160e05161010051610120516101405161214e6200044c600039600081816102830152818161076f0152818161086201528181610fea01526114f401526000818161035d01528181610a82015281816111e40152818161173c0152611c9a0152600081816103230152818161068001528181610707015281816108e501528181610d8f01528181610e150152818161142d01528181611703015281816117d401528181611843015281816118c201526119280152600061046901526000818161020b015261054e0152600081816103db0152818161072901528181610e3701528181610fb70152818161151801526116950152600081816104900152611c74015261214e6000f3fe608060405234801561001057600080fd5b50600436106101c45760003560e01c8063570c69cd116100f9578063a224388e11610097578063bab2f55211610071578063bab2f552146104c7578063c19d93fb146104d0578063c84979f3146104ea578063e6fd48bc146104fd57600080fd5b8063a224388e1461048b578063aaa83e5a146104b2578063b688a363146104bf57600080fd5b8063729df2f3116100d3578063729df2f31461041d578063929066f514610430578063968ed6001461045b578063a06db7dc1461046457600080fd5b8063570c69cd146103bd5780635fa0b65f146103d65780637143059f146103fd57600080fd5b806311eac85511610166578063362f04c011610140578063362f04c01461031e578063481c6a75146103585780634c3b19391461037f5780635114cb52146103aa57600080fd5b806311eac8551461027e578063195ec9ee146102bd57806335c1d349146102d257600080fd5b80630ad08b86116101a25780630ad08b861461022d5780630b529a17146102355780630ce01474146102485780630e15a1961461026b57600080fd5b806301e2db35146101c957806305a95f04146101fc57806309e785e114610206575b600080fd5b6101e96101d7366004611dcb565b60066020526000908152604090205481565b6040519081526020015b60405180910390f35b610204610506565b005b6101e97f000000000000000000000000000000000000000000000000000000000000000081565b6101e9600f81565b6101e9610243366004611df4565b610960565b61025b610256366004611dcb565b610981565b60405190151581526020016101f3565b610204610279366004611dcb565b610a77565b6102a57f000000000000000000000000000000000000000000000000000000000000000081565b6040516001600160a01b0390911681526020016101f3565b6102c5610c66565b6040516101f39190611e51565b6102e56102e0366004611df4565b610d11565b604080516001600160a01b03909716875294151560208701529385019290925215156060840152608083015260a082015260c0016101f3565b6103457f000000000000000000000000000000000000000000000000000000000000000081565b60405161ffff90911681526020016101f3565b6102a57f000000000000000000000000000000000000000000000000000000000000000081565b610387610d6b565b604080519384526001600160a01b039092166020840152908201526060016101f3565b6102046103b8366004611df4565b610e64565b6005546040516101f39160009182919082908190611ed7565b6101e97f000000000000000000000000000000000000000000000000000000000000000081565b61041061040b366004611dcb565b611098565b6040516101f39190611f07565b61020461042b366004611dcb565b6111d9565b61025b61043e366004611dcb565b6001600160a01b0316600090815260066020526040902054151590565b6101e960045481565b6101e97f000000000000000000000000000000000000000000000000000000000000000081565b6101e97f000000000000000000000000000000000000000000000000000000000000000081565b60075461025b9060ff1681565b6102046113cb565b6101e960035481565b6001546104dd9060ff1681565b6040516101f39190611f1b565b6102046104f8366004611df4565b611731565b6101e960025481565b61050e611a81565b6001805460ff16600281111561052657610526611e9f565b1461054c5760405162461bcd60e51b815260040161054390611f29565b60405180910390fd5b7f000000000000000000000000000000000000000000000000000000000000000060035461057a9190611f6c565b6002546105879190611f83565b4210156105d65760405162461bcd60e51b815260206004820152601b60248201527f43757272656e74206379636c65206e6f7420636f6d706c6574656400000000006044820152606401610543565b6105de611aab565b61062a5760405162461bcd60e51b815260206004820152601e60248201527f4e6f7420616c6c207061727469636970616e74732068617665207061696400006044820152606401610543565b60075460ff1661067c5760405162461bcd60e51b815260206004820152601960248201527f5061796f7574206f72646572206e6f742061737369676e6564000000000000006044820152606401610543565b60007f000000000000000000000000000000000000000000000000000000000000000061ffff166003546106b09190611f96565b905060006005600883815481106106c9576106c9611fb8565b9060005260206000200154815481106106e4576106e4611fb8565b600091825260208220600590910201546001600160a01b0316915061074d61ffff7f0000000000000000000000000000000000000000000000000000000000000000167f0000000000000000000000000000000000000000000000000000000000000000611f6c565b6040516370a0823160e01b815230600482015290915081906001600160a01b037f000000000000000000000000000000000000000000000000000000000000000016906370a0823190602401602060405180830381865afa1580156107b6573d6000803e3d6000fd5b505050506040513d601f19601f820116820180604052508101906107da9190611fce565b10156108285760405162461bcd60e51b815260206004820152601d60248201527f496e73756666696369656e7420636f6e74726163742062616c616e63650000006044820152606401610543565b6003805490600061083883611fe7565b9190505550806004600082825461084f9190612000565b9091555061088990506001600160a01b037f0000000000000000000000000000000000000000000000000000000000000000168383611b71565b816001600160a01b03167f1d2b6cb5f88d674645ff36bd6e4ea583bc3bea7dbb817b193201b90dc9eb47748260016003546108c49190612000565b604080519283526020830191909152429082015260600160405180910390a27f000000000000000000000000000000000000000000000000000000000000000061ffff1660035410610951576001805460ff191660021790556040514281527f7bd139738245a137c3a1097cc5b6e4ab191bc684746c29d16ae43280bda83c539060200160405180910390a15b50505061095e6001600055565b565b6008818154811061097057600080fd5b600091825260209091200154905081565b6001600160a01b0381166000908152600660205260408120546109a657506000919050565b6001600160a01b0382166000908152600660205260408120546005906109ce90600190612000565b815481106109de576109de611fb8565b60009182526020918290206040805160c081018252600590930290910180546001600160a01b038116845260ff600160a01b90910481161515948401949094526001810154918301919091526002810154909216158015606083018190526003840154608084015260049093015460a0830152909250610a5f575080602001515b8015610a7057506003548160400151115b9392505050565b336001600160a01b037f00000000000000000000000000000000000000000000000000000000000000001614610abf5760405162461bcd60e51b815260040161054390612013565b6001805460ff166002811115610ad757610ad7611e9f565b14610af45760405162461bcd60e51b815260040161054390611f29565b6001600160a01b038116600090815260066020526040812054610b1990600190612000565b6005549091508110610b635760405162461bcd60e51b8152602060048201526013602482015272125b9d985b1a59081c185c9d1a58da5c185b9d606a1b6044820152606401610543565b600060058281548110610b7857610b78611fb8565b60009182526020909120600590910201600281015490915060ff16610baf5760405162461bcd60e51b815260040161054390612042565b8054600160a01b900460ff16158015610bce5750600354816001015411155b610c1a5760405162461bcd60e51b815260206004820152601a60248201527f5061727469636970616e74206e6f7420696e2064656661756c740000000000006044820152606401610543565b600354604080519182524260208301526001600160a01b038516917f48f5b31689373177c3a194793297ff1acf95fcc7ea01b17f45109945d754958891015b60405180910390a2505050565b60606005805480602002602001604051908101604052809291908181526020016000905b82821015610d085760008481526020908190206040805160c0810182526005860290920180546001600160a01b038116845260ff600160a01b90910481161515848601526001808301549385019390935260028201541615156060840152600381015460808401526004015460a08301529083529092019101610c8a565b50505050905090565b60058181548110610d2157600080fd5b6000918252602090912060059091020180546001820154600283015460038401546004909401546001600160a01b0384169550600160a01b90930460ff9081169492939116919086565b600354600754600090819060ff168015610d86575060055415155b15610e5f5760007f000000000000000000000000000000000000000000000000000000000000000061ffff16600354610dbf9190611f96565b9050600560088281548110610dd657610dd6611fb8565b906000526020600020015481548110610df157610df1611fb8565b60009182526020909120600590910201546001600160a01b03169250610e5b61ffff7f0000000000000000000000000000000000000000000000000000000000000000167f0000000000000000000000000000000000000000000000000000000000000000611f6c565b9150505b909192565b33600090815260066020526040902054610ec05760405162461bcd60e51b815260206004820152601960248201527f43616c6c6572206973206e6f74207061727469636970616e74000000000000006044820152606401610543565b6001805460ff166002811115610ed857610ed8611e9f565b14610ef55760405162461bcd60e51b815260040161054390611f29565b60008111610f455760405162461bcd60e51b815260206004820152601d60248201527f4d7573742070617920666f72206174206c656173742031206379636c650000006044820152606401610543565b33600090815260066020526040812054610f6190600190612000565b9050600060058281548110610f7857610f78611fb8565b60009182526020909120600590910201600281015490915060ff16610faf5760405162461bcd60e51b815260040161054390612042565b6000610fdb847f0000000000000000000000000000000000000000000000000000000000000000611f6c565b90506110126001600160a01b037f000000000000000000000000000000000000000000000000000000000000000016333084611bd5565b836003546110209190611f83565b6001830155815460ff60a01b1916600160a01b1782556004805482919060009061104b908490611f83565b909155505060408051858152602081018390524281830152905133917f8e4aa0897527f9d5629d6daf3255e753bfdd9862c1b9803c200a8bd12d5b8625919081900360600190a250505050565b6040805160c08101825260008082526020808301829052828401829052606083018290526080830182905260a083018290526001600160a01b038516825260069052919091205461112b5760405162461bcd60e51b815260206004820152601a60248201527f41646472657373206973206e6f74207061727469636970616e740000000000006044820152606401610543565b6001600160a01b03821660009081526006602052604090205460059061115390600190612000565b8154811061116357611163611fb8565b60009182526020918290206040805160c081018252600590930290910180546001600160a01b038116845260ff600160a01b90910481161515948401949094526001810154918301919091526002810154909216151560608201526003820154608082015260049091015460a082015292915050565b336001600160a01b037f000000000000000000000000000000000000000000000000000000000000000016146112215760405162461bcd60e51b815260040161054390612013565b6001805460ff16600281111561123957611239611e9f565b146112565760405162461bcd60e51b815260040161054390611f29565b6001600160a01b03811660009081526006602052604081205461127b90600190612000565b60055490915081106112c55760405162461bcd60e51b8152602060048201526013602482015272125b9d985b1a59081c185c9d1a58da5c185b9d606a1b6044820152606401610543565b6000600582815481106112da576112da611fb8565b60009182526020909120600590910201600281015490915060ff166113115760405162461bcd60e51b815260040161054390612042565b8054600160a01b900460ff161580156113305750600354816001015411155b61137c5760405162461bcd60e51b815260206004820152601a60248201527f5061727469636970616e74206e6f7420696e2064656661756c740000000000006044820152606401610543565b60028101805460ff19169055600354604080519182524260208301526001600160a01b038516917f7e4798a8032598c7051889ed361360d7a9014ad9a23db8378c2984bbc5cc4f0a9101610c59565b600060015460ff1660028111156113e4576113e4611e9f565b146114255760405162461bcd60e51b81526020600482015260116024820152702a30b732309034b9903737ba1037b832b760791b6044820152606401610543565b60055461ffff7f0000000000000000000000000000000000000000000000000000000000000000161161148a5760405162461bcd60e51b815260206004820152600d60248201526c15185b9918481a5cc8199d5b1b609a1b6044820152606401610543565b33600090815260066020526040902054156114e75760405162461bcd60e51b815260206004820152601960248201527f416c7265616479206a6f696e656420746869732074616e6461000000000000006044820152606401610543565b61153c6001600160a01b037f00000000000000000000000000000000000000000000000000000000000000001633307f0000000000000000000000000000000000000000000000000000000000000000611bd5565b6040805160c0810182523380825260016020808401828152848601838152606086018481526000608088018181524260a08a019081526005805498890181558084529951978a027f036b6384b5eca791c62761152d0c79bb0604c104a5fb6f4eb0703f3154bb3db08101805497511515600160a01b026001600160a81b03199098166001600160a01b039a909a16999099179690961790975592517f036b6384b5eca791c62761152d0c79bb0604c104a5fb6f4eb0703f3154bb3db185015590517f036b6384b5eca791c62761152d0c79bb0604c104a5fb6f4eb0703f3154bb3db28401805491151560ff1990921691909117905590517f036b6384b5eca791c62761152d0c79bb0604c104a5fb6f4eb0703f3154bb3db383015592517f036b6384b5eca791c62761152d0c79bb0604c104a5fb6f4eb0703f3154bb3db4909101559254918152600690925291812091909155600480547f000000000000000000000000000000000000000000000000000000000000000092906116c1908490611f83565b909155505060405142815233907f8123641a38ad3476ac345fc38496fa9edc26a110698c8c0c9fffc30f546f918c9060200160405180910390a260055461ffff7f000000000000000000000000000000000000000000000000000000000000000016900361095e5761095e611c14565b336001600160a01b037f000000000000000000000000000000000000000000000000000000000000000016146117795760405162461bcd60e51b815260040161054390612013565b60075460ff16156117cc5760405162461bcd60e51b815260206004820152601d60248201527f5061796f7574206f7264657220616c72656164792061737369676e65640000006044820152606401610543565b60055461ffff7f000000000000000000000000000000000000000000000000000000000000000016146118415760405162461bcd60e51b815260206004820152601b60248201527f4e6f7420616c6c207061727469636970616e7473206a6f696e656400000000006044820152606401610543565b7f000000000000000000000000000000000000000000000000000000000000000061ffff1667ffffffffffffffff81111561187e5761187e612079565b6040519080825280602002602001820160405280156118a7578160200160208202803683370190505b5080516118bc91600891602090910190611d6b565b5060005b7f000000000000000000000000000000000000000000000000000000000000000061ffff1681101561191e57806008828154811061190057611900611fb8565b6000918252602090912001558061191681611fe7565b9150506118c0565b50600061194c60017f000000000000000000000000000000000000000000000000000000000000000061208f565b61ffff1690505b8015611a35576000611966826001611f83565b60408051602081018690529081018490526060016040516020818303038152906040528051906020012060001c61199d9190611f96565b9050600881815481106119b2576119b2611fb8565b9060005260206000200154600883815481106119d0576119d0611fb8565b9060005260206000200154600884815481106119ee576119ee611fb8565b90600052602060002001600060088581548110611a0d57611a0d611fb8565b6000918252602090912001929092559190915550819050611a2d816120b1565b915050611953565b506007805460ff191660011790556040517f971012af51546161130452a244c133ec24b1cde244ef6ac75b42efc886a43ada90611a769060089042906120c8565b60405180910390a150565b600260005403611aa457604051633ee5aeb560e01b815260040160405180910390fd5b6002600055565b6000805b600554811015611b695760058181548110611acc57611acc611fb8565b600091825260209091206002600590920201015460ff168015611b4a575060035460058281548110611b0057611b00611fb8565b906000526020600020906005020160010154111580611b4a575060058181548110611b2d57611b2d611fb8565b6000918252602090912060059091020154600160a01b900460ff16155b15611b5757600091505090565b80611b6181611fe7565b915050611aaf565b506001905090565b6040516001600160a01b03838116602483015260448201839052611bd091859182169063a9059cbb906064015b604051602081830303815290604052915060e01b6020820180516001600160e01b038381831617835250505050611cfa565b505050565b6040516001600160a01b038481166024830152838116604483015260648201839052611c0e9186918216906323b872dd90608401611b9e565b50505050565b6001805460ff19168117815542600281905560038290556040805191825260208201929092527faed8f846008894a9b50aafe48b33af7084702a26f52921bbf1f5aa5dfbb09aa4910160405180910390a16040516373f3357160e11b81527f000000000000000000000000000000000000000000000000000000000000000060048201527f00000000000000000000000000000000000000000000000000000000000000006001600160a01b03169063e7e66ae290602401600060405180830381600087803b158015611ce657600080fd5b505af1158015611c0e573d6000803e3d6000fd5b600080602060008451602086016000885af180611d1d576040513d6000823e3d81fd5b50506000513d91508115611d35578060011415611d42565b6001600160a01b0384163b155b15611c0e57604051635274afe760e01b81526001600160a01b0385166004820152602401610543565b828054828255906000526020600020908101928215611da6579160200282015b82811115611da6578251825591602001919060010190611d8b565b50611db2929150611db6565b5090565b5b80821115611db25760008155600101611db7565b600060208284031215611ddd57600080fd5b81356001600160a01b0381168114610a7057600080fd5b600060208284031215611e0657600080fd5b5035919050565b80516001600160a01b03168252602080820151151590830152604080820151908301526060808201511515908301526080808201519083015260a090810151910152565b6020808252825182820181905260009190848201906040850190845b81811015611e9357611e80838551611e0d565b9284019260c09290920191600101611e6d565b50909695505050505050565b634e487b7160e01b600052602160045260246000fd5b60038110611ed357634e487b7160e01b600052602160045260246000fd5b9052565b60a08101611ee58288611eb5565b8560208301528460408301528360608301528260808301529695505050505050565b60c08101611f158284611e0d565b92915050565b60208101611f158284611eb5565b60208082526013908201527254616e6461206973206e6f742061637469766560681b604082015260600190565b634e487b7160e01b600052601160045260246000fd5b8082028115828204841417611f1557611f15611f56565b80820180821115611f1557611f15611f56565b600082611fb357634e487b7160e01b600052601260045260246000fd5b500690565b634e487b7160e01b600052603260045260246000fd5b600060208284031215611fe057600080fd5b5051919050565b600060018201611ff957611ff9611f56565b5060010190565b81810381811115611f1557611f15611f56565b60208082526015908201527421b0b63632b91034b9903737ba1036b0b730b3b2b960591b604082015260600190565b60208082526017908201527f5061727469636970616e7420697320696e616374697665000000000000000000604082015260600190565b634e487b7160e01b600052604160045260246000fd5b61ffff8281168282160390808211156120aa576120aa611f56565b5092915050565b6000816120c0576120c0611f56565b506000190190565b6000604082016040835280855480835260608501915086600052602092508260002060005b82811015612109578154845292840192600191820191016120ed565b5050509201929092529291505056fea2646970667358221220e17d41fff9ef38b83e369dc9b6299d6b73ea0675ee958f3934d6e2c8d7e5fe7e64736f6c63430008140033a2646970667358221220186b491a98b469ac9d0428cf948525a42e50f560b6ab0384be8cf38b0417d01664736f6c63430008140033",
  "devdoc": {
    "kind": "dev",
    "methods": {
      "createTanda(uint256,uint256,uint16,uint256)": {
        "params": {
          "_contributionAmount": "USDC amount each participant must contribute",
          "_gracePeriod": "Grace period for late payments in seconds",
          "_participantCount": "Number of participants needed",
          "_payoutInterval": "Time between payouts in seconds"
        },
        "returns": {
          "_0": "tandaId ID of the newly created Tanda"
        }
      },
      "getActiveTandaIds()": {
        "returns": {
          "_0": "Array of active Tanda IDs"
        }
      },
      "getTandaAddress(uint256)": {
        "params": {
          "tandaId": "ID of the Tanda"
        },
        "returns": {
          "_0": "Tanda contract address"
        }
      },
      "getTandaParameters(uint256)": {
        "params": {
          "tandaId": "ID of the Tanda"
        },
        "returns": {
          "contributionAmount": "USDC contribution amount",
          "gracePeriod": "Grace period in seconds",
          "participantCount": "Number of participants",
          "payoutInterval": "Payout interval in seconds"
        }
      },
      "getUsdcAddress()": {
        "returns": {
          "_0": "USDC contract address"
        }
      },
      "isTandaActive(uint256)": {
        "params": {
          "tandaId": "ID of the Tanda to check"
        },
        "returns": {
          "_0": "True if active, false otherwise"
        }
      },
      "requestRandomnessForTanda(uint256)": {
        "details": "Only callable by Tanda contracts",
        "params": {
          "tandaId": "ID of the Tanda requesting randomness"
        }
      }
    },
    "version": 1
  },
  "userdoc": {
    "kind": "user",
    "methods": {
      "createTanda(uint256,uint256,uint16,uint256)": {
        "notice": "Create a new Tanda"
      },
      "getActiveTandaIds()": {
        "notice": "Get all active Tanda IDs"
      },
      "getTandaAddress(uint256)": {
        "notice": "Get Tanda contract address by ID"
      },
      "getTandaParameters(uint256)": {
        "notice": "Get Tanda creation parameters"
      },
      "getUsdcAddress()": {
        "notice": "Get USDC token address"
      },
      "isTandaActive(uint256)": {
        "notice": "Check if Tanda is active"
      },
      "requestRandomnessForTanda(uint256)": {
        "notice": "Request randomness for payout order assignment"
      }
    },
    "version": 1
  },
  "storageLayout": {
    "storage": [
      {
        "astId": 1841,
        "contract": "contracts/TandaManager.sol:TandaManager",
        "label": "nextTandaId",
        "offset": 0,
        "slot": "0",
        "type": "t_uint256"
      },
      {
        "astId": 1845,
        "contract": "contracts/TandaManager.sol:TandaManager",
        "label": "tandaIdToAddress",
        "offset": 0,
        "slot": "1",
        "type": "t_mapping(t_uint256,t_address)"
      },
      {
        "astId": 1849,
        "contract": "contracts/TandaManager.sol:TandaManager",
        "label": "vrfRequestIdToTandaId",
        "offset": 0,
        "slot": "2",
        "type": "t_mapping(t_uint256,t_uint256)"
      },
      {
        "astId": 1853,
        "contract": "contracts/TandaManager.sol:TandaManager",
        "label": "activeTandas",
        "offset": 0,
        "slot": "3",
        "type": "t_mapping(t_uint256,t_bool)"
      }
    ],
    "types": {
      "t_address": {
        "encoding": "inplace",
        "label": "address",
        "numberOfBytes": "20"
      },
      "t_bool": {
        "encoding": "inplace",
        "label": "bool",
        "numberOfBytes": "1"
      },
      "t_mapping(t_uint256,t_address)": {
        "encoding": "mapping",
        "key": "t_uint256",
        "label": "mapping(uint256 => address)",
        "numberOfBytes": "32",
        "value": "t_address"
      },
      "t_mapping(t_uint256,t_bool)": {
        "encoding": "mapping",
        "key": "t_uint256",
        "label": "mapping(uint256 => bool)",
        "numberOfBytes": "32",
        "value": "t_bool"
      },
      "t_mapping(t_uint256,t_uint256)": {
        "encoding": "mapping",
        "key": "t_uint256",
        "label": "mapping(uint256 => uint256)",
        "numberOfBytes": "32",
        "value": "t_uint256"
      },
      "t_uint256": {
        "encoding": "inplace",
        "label": "uint256",
        "numberOfBytes": "32"
      }
    }
  }
}